S0180000684D61737465725F546F7271746573742E7372656373
S11300000C9446000C9465000C9465000C946500F7
S11300100C9465000C9465000C9465000C946500C8
S11300200C9465000C9465000C9465000C946500B8
S11300300C9465000C9465000C9465000C946500A8
S11300400C9465000C9465000C9467000C94650096
S11300500C9465000C9465000C9465000C94650088
S11300600C9465000C9465000C9465000C94650078
S11300700C9465000C9465000C9465000C94650068
S11300800C9465000C9465000C94650011241FBE4B
S1130090CFEFD0E1DEBFCDBF11E0A0E0B1E0E6E3F9
S11300A0F5E000E00BBF02C007900D92A830B10745
S11300B0D9F721E0A8E0B1E001C01D92AA39B20746
S11300C0E1F70E94B7010C9499020C9400001F926E
S11300D00F920FB60F9211240BB60F922F938F939A
S11300E09F93AF93BF93EF93FF938CB180930901D8
S11300F080910A0190910B01A0910C01B0910D0126
S1130100BA2FA92F982F882780930A0190930B0167
S1130110A0930C01B0930D0180910A0190910B0101
S1130120A0910C01B0910D01882780930A0190934E
S11301300B01A0930C01B0930D0120910901809152
S11301400A0190910B01A0910C01B0910D01822B39
S113015080930A0190930B01A0930C01B0930D01BD
S1130160809106018C30A0F4E09106018091090190
S1130170F0E0E25FFE4F8083809106018F5F809301
S11301800601809106018C3019F48FEF80930601EB
S1130190809105018C30A0F4E09105018091090162
S11301A0F0E0E65EFE4F8083809105018F5F8093CF
S11301B00501809105018C3019F48FEF80930501BE
S11301C0809104018430C0F480910401823040F0B5
S11301D0E091040180910901F0E0E250FF4F808337
S11301E0809104018F5F8093040180910401843025
S11301F019F48FEF80930401809103018031C0F4DE
S113020080910301843040F0E09103018091090161
S1130210F0E0EE5DFE4F8083809103018F5F809359
S1130220030180910301803119F48FEF809303015E
S1130230809102018730B8F4E091020180910901B4
S1130240F0E0EE5CFE4F8083809102018F5F80932B
S1130250020180910201873031F48FEF8093020113
S113026081E08093080180910A0190910B01A09193
S11302700C01B0910D018C3A9440AF43BF4329F473
S113028010920801109206013FC080910A019091DA
S11302900B01A0910C01B0910D018C3A9540AF4334
S11302A0BF4319F4109205012FC080910A01909167
S11302B00B01A0910C01B0910D018C3A9B40AF430E
S11302C0BF4319F4109204011FC080910A01909158
S11302D00B01A0910C01B0910D018C3A9E40AF43EB
S11302E0BF4319F4109203010FC080910A01909149
S11302F00B01A0910C01B0910D018C3A9F40AF43CA
S1130300BF4311F410920201809100019091010108
S1130310843F9140F0F48091000190910101892B78
S1130320C1F0809108018823A1F081E080939001BD
S113033057988FEF9FEF90930101809300011092E3
S1130340080110920A0110920B0110920C011092F4
S11303500D01FF91EF91BF91AF919F918F912F91DB
S11303600F900BBE0F900FBE0F901F901895CF9358
S1130370DF93CDB7DEB72E970FB6F894DEBF0FBE6E
S1130380CDBF80EF8ABB8BBB2FEF39E698E12150BC
S113039030409040E1F700C000001BBAEFEFF9E6EF
S11303A028E1E150F0402040E1F700C000008BBBA1
S11303B03FEF89E698E1315080409040E1F700C07A
S11303C000001BBAEFEFF9E628E1E150F0402040CD
S11303D0E1F700C000000E9480020E945A02CE0190
S11303E001969C878B876E019BE0C90ED11CEB851F
S11303F0ED87FC85FE870F2EFDE88F2EF1E09F2E02
S1130400F02D0F2EF7E86F2EF1E07F2EF02DA12CAA
S11304106894BB24B7F80F2EFEE84F2EF1E05F2E50
S1130420F02D0F2EF9E82F2EF1E03F2EF02D20EACB
S11304302BBB3FEF84E39CE0315080409040E1F7D8
S113044000C00000E0E5EBBBFFEF24E33CE0F1502B
S113045020403040E1F700C00000CE0101967C014D
S11304600D851E850E949502F80181938F01EC157C
S1130470FD05C1F7F70181917F010E9491028FE18F
S11304809EE40197F1F700C00000EC14FD0491F71D
S1130490F4011082F301B182A082F2011082F10111
S11304A0B182A082EFE8F1E01082EBE8F1E0B182E2
S11304B0A082BDCF84B3886384BB82B1886382B9D0
S11304C0ABE8B0E01C92EAE8F0E0108210928C00F5
S11304D08C918A6A8C938081816180838FEF9FEFF6
S11304E09093810080938000E4E8F0E01182108210
S11304F0118210821182108285B3877C85BB089596
S11305001BB81AB8E5E9F0E01082599A8AB18861FB
S11305108AB980818E60808387E689B910929000C1
S113052008955D9BFECF8CB908955F9BFECF8CB17F
S10905300895F894FFCFCA
S10B0536FFFFFFFFFFFFFF00C0
S9030000FC
