S0100000446F776E6C696E6B2E73726563CE
S113000012C02CC02BC02AC029C028C027C026C0BB
S113001025C024C023C020C221C020C01FC01EC0D0
S11300201DC01CC01BC011241FBECFE5D4E0DEBF21
S1130030CDBF10E0A0E6B0E0E8EAF5E002C005902C
S11300400D92AE3EB107D9F721E0AEEEB0E001C0AB
S11300501D92A736B207E1F73CD2A4C2D1CF7FEFFD
S1130060760F662329F1E82FF92F4FEF5FEF2191E7
S11300702527322F32953F70922F9327292F30E076
S1130080542F442742275327C901982F8827929534
S1130090907F48275927220F331F22953295307FAE
S11300A03227207F322742275327715000F702C09E
S11300B04FEF5FEFCA010895CF92DF92EF92FF9264
S11300C00F931F93CF93DF93CDB7DEB7C055D109FC
S11300D00FB6F894DEBF0FBECDBF6C018EE7D6011C
S11300E08D937D0186E0E5EBF0E0DE011196019051
S11300F00D928A95E1F7CE010196D7019E01295F01
S11301003F4FFC0141914D93E217F307D9F740E6C5
S1130110F601478346E0ECEBF0E0DE011196019036
S11301200D924A95E1F7D6011896FC0141914D9341
S1130130E217F307D9F748E6D6011E964C9346E03A
S1130140E3ECF0E0DE01119601900D924A95E1F79F
S1130150F6013F96DC014D91CD014193A217B307FF
S1130160C9F781E6F601858B83E0868B80EF878B68
S11301700091600010916100A801CE01019609D29E
S113018010161106C4F480E090E020E0F601E80FB8
S1130190F91FA1E0B0E0AC0FBD1FA80FB91F8C91EF
S11301A0808F2F5F822F90E000916000109161009A
S11301B0801791075CF318E1100F67E1600FC70126
S11301C04EDFF601E10FF11D80839183065EF60197
S11301D0E00FF11D8EE78083C05BDF4F0FB6F8940C
S11301E0DEBF0FBECDBFDF91CF911F910F91FF9066
S11301F0EF90DF90CF90089581E084BB85BBB3D1AD
S1130200BC98BD9ABB9ABA9AB89883E58DB91EB8C2
S1130210C29AC398C59A0895C298B499FECF8068CB
S11302208FB9779BFECF8FB11FB8779BFECF8FB16D
S1130230C29A0895C298B499FECF8FB9779BFECF26
S11302408FB16FB9779BFECF8FB1C29A0895C298D0
S1130250B499FECF8FB9779BFECF8FB1C29A089520
S1130260C298B499FECF80648FB9779BFECF8FB1CB
S11302704115510551F0FB01460F571F81918FB96C
S1130280779BFECFE417F507C9F7C29A0895C29A7F
S113029082E08A95F1F700C0C29882E08A95F1F76E
S11302A000C0C29A8DE68A95F1F70000C298B4990D
S11302B0FECF85E88A95F1F7000080E38FB9779B3C
S11302C0FECF8FB1B499FECF85E88A95F1F700008F
S11302D0C29A0895CF93DF93EC01688182E0AADF8C
S11302E082E09ADF4ED1698183E0A4DF83E094DF6A
S11302F048D16A8188E09EDF88E08EDF42D16B813D
S11303008BE098DF8BE088DF3CD16C818DE092DF5D
S11303108DE082DF36D16D818EE08CDF8EE07CDF74
S113032030D16E818FE086DF8FE076DF2AD16F8156
S113033080E180DF80E170DF24D1688581E17ADFAC
S113034081E16ADF1ED1698582E174DF82E164DFC5
S113035018D16A8585E16EDF85E15EDF12D16B8598
S113036088E168DF88E158DF0CD16C8589E162DFC0
S113037089E152DF06D16D8580E25CDF80E24CDFEB
S113038000D16E8583E256DF83E246DFFAD06F85C3
S113039084E250DF84E240DFF4D0688985E24ADFFA
S11303A085E23ADFEED0698986E244DF86E234DF13
S11303B0E8D06A898CE23EDF8CE22EDFE2D06B89E2
S11303C08DE238DF8DE228DFDCD06C898EE232DF0B
S11303D08EE222DFD6D0DF91CF9108958FEF85BBD7
S11303E0E8E7F0E0AAE2B1E025EB30E081918D93FB
S11303F0E217F307D9F786E32ADF41E050E062E62B
S113040070E08EE32DDF8BE322DF85E320DF4DE315
S113041050E06AE271E08FE323DF809166018E375A
S113042011F48AEA85BB8FE097E20197F1F700C0E7
S113043000009FEB24ED81E0915020408040E1F7E3
S113044000C0000086E303DF8FE19EE40197F1F72B
S113045000C0000015BA08951F920F920FB60F92B4
S113046011240F931F932F933F934F935F936F9395
S11304707F938F939F93AF93BF93CF93DF93EF9328
S1130480FF93F8948CB180937800C9E7D0E005EB32
S113049010E07BD08993C017D107D9F71092B5002B
S11304A08DE390E09BDF7894FF91EF91DF91CF9102
S11304B0BF91AF919F918F917F916F915F914F9178
S11304C03F912F911F910F910F900FBE0F901F908E
S11304D01895CF93DF93CDB7DEB7C257D1090FB6C6
S11304E0F894DEBF0FBECDBFF89486DE8FE084BBE8
S11304F08FEF85BB2FEF89E698E121508040904033
S1130500E1F700C0000015BAC2DE83E690E0E2DE47
S113051086E0EAECF0E0DE01119601900D928A95F6
S1130520E1F7FE013196DE01AF5ABF4F9E012D5D0A
S11305303F4F81918D93E217F307D9F7BE016F5AAC
S11305407F4F88E790E0B8DD1092B5008DE390E02E
S113055045DF2FEF83E294EF215080409040E1F794
S113056000C00000F3CF1BB81AB810BC599A8AB166
S113057088698AB980B5866880BD87E689B910BC68
S113058008955D9BFECF8CB908955F9BFECF8CB11F
S11305900895FB01DC0102C001900D9241505040CE
S10B05A0D8F70895F894FFCF89
S11305A82200600640050610D340F8831315181678
S11305B8FBE92A001F813509534154454C4C4954E1
S11305C8455F5052415448414D000000000000006E
S11305D8000000000000000000000000000000000F
S11305E800000000000000000000000000000000FF
S11305F800000000004351202020200056553242BC
S113060855470052454C41592000494954424F4DE1
S11306184241595052415448414D494954424F4D21
S111062842415941445649544959585800001A
S9030000FC
