:10000000E5C3000002C4000000C40000FEC30000FD
:10001000FCC30000FAC30000F8C30000F6C30000F0
:10002000F4C30000F2C30000F0C30000EEC3000000
:10003000ECC30000EAC300000C94FF2EE6C30000EE
:10004000E4C30000E2C300000C941F14DEC30000F0
:10005000DCC30000DAC30000D8C30000D6C3000030
:10006000D4C30000D2C30000D0C30000CEC3000040
:10007000CCC30000CAC300000C94EC1EC6C3000031
:10008000C4C30000C2C30000C0C30000C30DCC0D38
:10009000D50DDE0DE70DF00DF90D020E0B0E140E51
:1000A0001D0E036EDB363D9A9999993DABAAAA2A9B
:1000B0003E000000803F084AD73B3BCE016E84BC27
:1000C000BFFDC12F3D6C74319ABD56833DDA3D00B2
:1000D000C77F11BED9E4BB4C3E916BAAAABE0000FB
:1000E00000803F072C7AA5BA6CC590DA3B9365FC7B
:1000F0008BBC53F810FD3C5692834DBD879D3AB69C
:100100003DCBC9BF5BBE73DA0FC93F05A84CCDB26A
:10011000D44EB93836A9020C50B9918688083CA64D
:10012000AAAA2ABE000000803F07634236B79BD8C8
:10013000A71A39685618AEBAAB558C1D3CB7CC57C8
:1001400063BD6DEDFD753EF6177231BF0000008096
:100150003F08000000BE922449123EABAAAA2ABE64
:10016000CDCCCC4C3E00000080BEABAAAAAA3E007B
:10017000000000BF000000803F00000000000841B8
:1001800078D3BB4387D1133D190E3CC3BD4282AD2A
:100190002B3E68EC8276BED98FE1A93E4C80EFFF02
:1001A000BE01C4FF7F3F000000000000000000000F
:1001B000CDCC2441CDCC9041CDCCD4C133330BC177
:1001C000333353C03333DBC1666606409A9961C14D
:1001D0009A9959400000B0C033330341333333BFE1
:1001E000CDCCCCBE9A9921C16666E63F333333BF8E
:1001F000CDCC4C3E6666A6BF9A9911C19A99A9408A
:10020000333383409A9939409A9989C06666A6C06B
:10021000CDCC4CBE0000003F9A99193F6666A6BF40
:100220009A99D93FCDCCCCBD9A9999BF3333B33F7E
:100230009A9959409A997940000000009A9999BE7C
:10024000CDCCCCBD00000000333333BF666606C0A2
:1002500066660640333333BF9A9999BFCDCC4C3E86
:100260009A99993E6666663FCDCCCC3F0000803FB0
:100270009A99993ECDCC4CBECDCC4C3F000000BFEE
:10028000CDCCCC3E6666A63FCDCC4CBECDCCCC3DD5
:100290009A9999BE9A9919BF9A9919BFCDCC4CBF1A
:1002A000CDCCCC3DCDCC4C3ECDCC4CBECDCC4C3EC3
:1002B000000000009A9999BE9A9919BF9A99993E9F
:1002C0000000003FCDCCCC3DCDCC4CBE0000003F6B
:1002D000CDCCCC3ECDCC4CBECDCCCC3D9A9999BEAC
:1002E000CDCCCCBE9A99993E9A99993E00000000D7
:1002F00000000000000000000000000000000000FE
:1003000000000000000000000000000000000000ED
:1003100000000000000000000000000000000000DD
:1003200000000000000000000000000000000000CD
:1003300000000000000000000000000000000000BD
:1003400000000000000000000000000000000000AD
:10035000000000000000000000000000000000009D
:10036000000000000000000000000000000000008D
:10037000000000000000000000000000000000007D
:10038000000000000000000000000000000000006D
:10039000000000000000000000000000000000005D
:1003A000000000000000000000000000000000004D
:1003B000000000000000000000000000000000003D
:1003C000000000000000000000000000000000002D
:1003D000000000000000000000000000000000001D
:1003E000000000000000000000000000000000000D
:1003F00000000000000000000000000000000000FD
:1004000000000000000000000000000000000000EC
:1004100000000000000000000000000000000000DC
:1004200000000000000000000000000000000000CC
:1004300000000000000000000000000000000000BC
:1004400000000000000000000000000000000000AC
:10045000000000000000000000000000000000009C
:10046000000000000000000000000000000000008C
:10047000000000000000000000000000000000007C
:10048000000000000000000000000000000000006C
:10049000000000000000000000000000000000005C
:1004A000000000000000000000000000000000004C
:1004B000000000000000000000000000000000003C
:1004C0000004E6C600A0BBC4CDE895459AD118C586
:1004D000664E3C459AD931C56696D1449A7920C476
:1004E00066D6A844CD0413C59A99E6C2333399441D
:1004F00066E67443008011449A9906C466E6624435
:10050000CD6C4B4466A68D43CDCCF04233B33CC397
:100510003373A7C366E63443CDCC8C4200C0A4C37A
:100520009A9968C3CD0CB44333333D426666404369
:100530000000454366E60CC39A99EEC200801DC3D5
:1005400000008041333383406666C84200008C421D
:10055000666687426666A6C166669142CDCC044255
:1005600066E601C39A996B423333E7C1666685C27A
:10057000333353419A99E940CDCC8DC266667A42B5
:100580003333A342333398C2666658C29A99D9C0AE
:1005900000009CC133334F426666B6400000704194
:1005A0003333C341666616419A995940333333C099
:1005B0003333DBC19A99D940CDCC0CC09A99C14153
:1005C000CDCC0C419A992141333387C1666692C1E3
:1005D000CDCC4CC0CDCC5441CDCCA4C19A9969C1ED
:1005E000666656419A99814133333B416666B6400F
:1005F00066667EC19A9911C1000000C06666064019
:10060000CDCCAC40CDCC0C41CDCCACC16666464027
:10061000CDCC2C41333353C0CDCC3C413333333F6D
:100620009A99D9C0CDCC54C1CDCCDCC0CDCCCCBDF9
:100630009A99F94033330B410000803F9A9911C1D8
:10064000000080C0000028C1666606413333F3BF56
:100650009A99C9C0CDCC4C40CDCCCC3DCDCCCCBEF4
:100660000000003F33339340000000BFCDCC8C40EE
:100670006666E63FCDCCFCC0333333BF9A9919BFD1
:1006800066660640666686C09A991940333333C061
:100690006666E6BF9A9999BF666666C033330BC13A
:1006A000666646400000C0BFCDCCCCBD333313C01E
:1006B0000000004000000040333333BFCDCC4CBFBE
:1006C000CDCC8CBF9A99193FCDCC4C3F333333BF3F
:1006D000CDCC4CBECDCC4C3ECDCC0CC09A99D93FA4
:1006E0003333B3BFCDCC4CBE000020C0CDCCCC3E0C
:1006F000000000C0000060409A9919C03333F3BF76
:10070000CDCC4CBECDCC8CBFCDCCCC3ECDCCCC3E1C
:100710009A99993F3333F33FCDCC4CBFCDCC0CC02D
:100720006666663F9A99993ECDCCCC3D3333333FD4
:100730000000003FCDCCCCBD9A9999BE9A99993EC4
:10074000CDCCCCBECDCC4C3ECDCC4C3E666666BF4F
:10075000666666BFCDCCCCBD000000003333333FAE
:1007600000000000666666BF666666BFCDCCCC3E04
:10077000CDCCCC3E0000003FCDCCCC3F000000BF34
:10078000000000BF0000803F9A9999BFCDCC4CBEBD
:10079000CDCCCCBDCDCC4C3FCDCCCC3ECDCCCCBD4E
:1007A000CDCCCCBD9A99993ECDCCCC3ECDCCCC3DD8
:1007B0000000003F0000003F9A9999BECDCCCCBE0E
:1007C000CDCCCCBE9A9999BECDCC4CBF11241FBEC6
:1007D000CFEFD0E1DEBFCDBF11E0A0E0B1E0ECE4AF
:1007E000F1E700E00BBF02C007900D92A239B107FC
:1007F000D9F725E0A2E9B1E001C01D92AE32B207FF
:10080000E1F70E942C2F0C94A438FACB2F923F9240
:100810004F925F926F927F928F929F92AF92BF9210
:10082000CF92DF92EF92FF920F931F93CF93DF93BC
:10083000CDB7DEB7C254D1090FB6F894DEBF0FBEF4
:10084000CDBF23969FAF8EAF2397809101059091E6
:100850000205A0910305B0910405EBEEF1E080875D
:100860009187A287B3878091050590910605A09195
:100870000705B091080584839583A683B78380918B
:10088000090590910A05A0910B05B0910C05808394
:100890009183A283B38380910C01882341F062E9A4
:1008A00071E0CF010E94BE1F10920C0187C10BEEB8
:1008B00011E00F2EF2E92F2EF1E03F2EF02D2E0148
:1008C0008DE0480E511CFE013196FEAFEDAF3201B6
:1008D00021965FAE4EAE21972F01F801C190D190C5
:1008E000E190F1908F01F10181909190A190B190F0
:1008F0001F01A5019401C701B6010E94343320E015
:1009000030E040E05FE30E943736F301619371937A
:10091000819391933F01A5019401C701B6010E9403
:10092000353320E030E040E05FE30E943736F201EB
:1009300061937193819391932F01F1E0073F1F071A
:1009400061F66DAC7EAC21964EAC5FAC21977E011A
:100950008AE1E80EF11C8E01045D1F4F5E019DE0EF
:10096000A90EB11C42016301F6016191719181915F
:1009700091916F0120E030E64AE656E40E94373656
:100980000E9481349B01772324F422273327261BDE
:10099000370BF70131972083F7013083F401619120
:1009A0007191819191914F0120E030E64AE656E441
:1009B0000E9437360E9481349B01772324F422273A
:1009C0003327261B370BF80131972083F80130833A
:1009D000F2E0EF0EF11C0E5F1F4FCA14DB0421F68C
:1009E0007E0181E3E80EF11C8E01015E1F4FDD24C4
:1009F000D394F30161917191819191913F0120E034
:100A000030E0A9010E942C3688231CF0F8011082E6
:100A100002C0F801D082F2016191719181919191AE
:100A20002F0120E030E0A9010E942C3688231CF021
:100A3000F701108202C0F701D082FFEFEF1AFF0A20
:100A40000F5F1F4FA614B704A1F63E0189E1680E9F
:100A5000711C6E0192E2C90ED11C362C272C4E015E
:100A6000EBE28E0E911C5C2CDDAE412C24C0F80113
:100A700081918F010E94EB2E0C151D05C1F75601C7
:100A8000052D1DAD0E94EF2EF80181938F01E81511
:100A9000F905C1F711E0F70121917F01F50191916D
:100AA0005F012913142DCE14DF04A9F7812F0E94B2
:100AB000EB2E11112CC07301032D122DD8CFF8018C
:100AC00081918F010E94EB2E0C151D05C1F7560177
:100AD0000DAD1FAD0E94EF2EF80181938F01E81537
:100AE000F905C1F711E0F70191917F01F5018191BD
:100AF0005F019813142DCE14DF04A9F7852D0E94F1
:100B0000EB2E111117C07301032D122DD8CF512ECA
:100B10003E01FBE26F0E711C6E0184E3C80ED11C16
:100B2000362C272C4E019DE3890E911CCDAEDFAEF5
:100B3000412CE9CFCE0101960E94EE1F9B01AC0132
:100B400060E070E080E89FEB0E9419346B017C014B
:100B50009B01AC016D857E858F8598890E94373613
:100B60002396EEADFFAD23976083718382839383D9
:100B7000A701960169897A898B899C890E943736F9
:100B80002396EEADFFAD23976483758386839783A9
:100B9000A70196016D897E898F89988D0E943736CD
:100BA0002396EEADFFAD2397608771878287938789
:100BB00062E971E08BEE91E00E94BE1FCE5BDF4FD9
:100BC0000FB6F894DEBF0FBECDBFDF91CF911F915E
:100BD0000F91FF90EF90DF90CF90BF90AF909F90DC
:100BE0008F907F906F905F904F903F902F900895DF
:100BF0002F923F924F925F926F927F928F929F922D
:100C0000AF92BF92CF92DF92EF92FF920F931F931A
:100C1000CF93DF93CDB7DEB7E9970FB6F894DEBF79
:100C20000FBECDBF9DAB8CAB6091010570910205ED
:100C300080910305909104050BEE11E020E030E473
:100C40004CE156E40E941934F8016087718782876D
:100C50009387609105057091060580910705909135
:100C6000080520E030E44CE156E40E941934DC0130
:100C7000CB01B058F80184839583A683B783609134
:100C8000090570910A0580910B0590910C0520E0F3
:100C900030E44CE156E40E941934F801608371831A
:100CA00082839383C8010E94EE1F6F87788B898BA4
:100CB0009A8B4090800450908104609082047090E0
:100CC00083040F2EF4E7EF2EF4E0FF2EF02DCE017B
:100CD00001964C010F2EF3ED2F2EF1E03F2EF02D5B
:100CE0000F2EF0E8AF2EF4E0BF2EF02D81016C0145
:100CF000F70161917191819191917F019B01AC010B
:100D00000E943533A30192010E943736F6016193A8
:100D10007193819391936F019B01AC010E943533D4
:100D20009B01AC01F80160817181828193810E94F5
:100D30003533F80161937193819391938F01EA1494
:100D4000FB04B1F62F85388949895A89CA01B9014E
:100D50000E9437366CA77DA78EA79FA78EE991E0EA
:100D60009FA38EA3C12CD12CFE013D96FE87ED875B
:100D700028AA39AA8AAA9BAA8601CEA0DFA0D9A652
:100D8000C8A6C80182599E4F9D8B8C8BF801E65BEB
:100D9000FE4FFF8BEE8B8FED91E0998F888FF801DE
:100DA000EA5DFE4FFB8FEA8FC8A8D9A8EAA8FBA886
:100DB0001F861B8A312C212C1BA70AA78701DD8ED9
:100DC000CC8EF80161917191819191918F01EC89A3
:100DD000FD892191319141915191FD8BEC8BEC8DED
:100DE000FD8D81909190A190B190FD8FEC8FEE8957
:100DF000FF894190519061907190FF8BEE8BE88D4F
:100E0000F98DC190D190E190F190F98FE88FCEAA41
:100E1000DFAAE8AEF9AEEA8DFB8DC190D190E190EA
:100E2000F190FB8FEA8FCE8EDF8EE8A2F9A20E94AE
:100E300037366B017C01A3019201C501B4010E9408
:100E400037369B01AC01C701B6010E9435334B0117
:100E50005C012E8D3F8D48A159A16EA97FA988AD57
:100E600099AD0E9437369B01AC01C501B4010E94C7
:100E700035339B01AC016F857B89832D922D0E94B8
:100E800035336F877B8B382E292ECD84DE840C156D
:100E90001D0509F096CF0AA51BA52CA53DA54EA5BD
:100EA0005FA5922D0E941934E8A5F9A5608371838E
:100EB000828393838EA19FA104969FA38EA3045F38
:100EC0001F4F0432110509F058CF4CA95DA96BEEF4
:100ED00071E08EE991E00E94DC216091D20170E026
:100EE00080E090E00E94B234AB01BC018CA99DA9C6
:100EF0000E945D22E9960FB6F894DEBF0FBECDBF0B
:100F0000DF91CF911F910F91FF90EF90DF90CF90E5
:100F1000BF90AF909F908F907F906F905F904F9019
:100F20003F902F9008952F923F924F925F926F9231
:100F30007F928F929F92AF92BF92CF92DF92EF9269
:100F4000FF920F931F93CF93DF93CDB7DEB76497D4
:100F50000FB6F894DEBF0FBECDBF1C018C016C0133
:100F60008CE0C80ED11C7101FC8AEB8AD7014D9030
:100F70005D906D907C9053014201E894B7F823E3B3
:100F800033E343E75FE3C501B4010E942C36181632
:100F900014F5A3019201C501B4010E94193420E0A7
:100FA00030E040E85FEB0E94123481110AC083E315
:100FB00093E3A3E7BFEBF70180839183A283B3831D
:100FC0000AC083E393E3A3E7BFE3EB89FC89808353
:100FD0009183A283B383F4E0EF0EF11CEC14FD04C3
:100FE00019F645ED5FE061EC7EE3C1010E945D22F0
:100FF000D8014D905D906D907C9053014201E89432
:10100000B7F828EA36EC4BE85EE3C501B4010E946C
:101010002C3618160CF5A3019201C501B4010E94EB
:10102000193420E030E040E85FEB0E941234811177
:101030000AC088EA96ECABE8BEEBF80180839183A6
:10104000A283B38309C088EA96ECABE8BEE3F8015B
:1010500080839183A283B3830C5F1F4FC016D10698
:1010600039F6D101CD90DD90ED90FC9020E030E09C
:10107000A901C701B6010E942C361816D4F420E04D
:101080003FEF4FE757E4C701B6010E94373628EA21
:1010900036EC4BE85EE30E9419349F770E94863459
:1010A000E4E1F5E07183608310921A05E080F1803D
:1010B00033C028EA36EC4BE85EE3C701B6010E9474
:1010C000193420E030E040E85FE30E94353320E04F
:1010D0003FEF4FE757E40E9437369F770E948634F0
:1010E000709315056093140581E080931A0520E044
:1010F0003FEF4FE757E4F101608171818281938175
:101100000E94373628EA36EC4BE85EE30E94193439
:101110009F770E9486347B01D10114968D909D901B
:10112000AD90BC90179720E030E0A901C501B40153
:101130000E942C36181674F520E03FEF4FE757E475
:10114000C501B4010E94373628EA36EC4BE85EE36D
:101150000E9419349F770E9486347093170560931C
:10116000160510921B0520E03FEF4FE757E4F10111
:1011700064817581868197810E94373628EA36EC32
:101180004BE85EE30E9419349F770E948634C62E96
:10119000D72E36C028EA36EC4BE85EE3C501B40131
:1011A0000E94193420E030E040E85FE30E943533CC
:1011B00020E03FEF4FE757E40E9437369F770E94C9
:1011C0008634709317056093160581E080931B05A4
:1011D00020E03FEF4FE757E4D10114966D917D91E8
:1011E0008D919C9117970E94373628EA36EC4BE890
:1011F0005EE30E9419349F770E948634C62ED72E54
:10120000F10180849184A284B38420E030E0A901BC
:10121000C501B4010E942C36181684F520E03FEF7A
:101220004FE757E4C501B4010E94373628EA36EC8F
:101230004BE85EE30E9419349F770E9486347093D6
:1012400019056093180510921C0520E03FEF4FE749
:1012500057E4D10118966D917D918D919C911B97CA
:101260000E94373628EA36EC4BE85EE30E941934D8
:101270009F770E948634062F172F34C028EA36EC59
:101280004BE85EE3C501B4010E94193420E030E070
:1012900040E85FE30E94353320E03FEF4FE757E43B
:1012A0000E9437369F770E948634709319056093A9
:1012B000180581E080931C0520E03FEF4FE757E4DD
:1012C000F10160857185828593850E94373628EA11
:1012D00036EC4BE85EE30E9419349F770E94863417
:1012E000062F172F0E94DA2E80911A058983EA8231
:1012F000FB8280911B058C83CD82DE8280911C0550
:101300008F8308871987CE0101963C014E019AE030
:10131000890E911C462C372C5E01A3E1AA0EB11C4C
:101320008B8A292C512C24C0F80181918F010E94B5
:10133000EB2E08151905C1F774010B89122D0E94B7
:10134000EF2ED8018D938D01AA15BB05C1F711E0D1
:10135000F70191917F01D6018D916D019813152DA3
:10136000EA14FB04A9F7812F0E94EB2E111104C08F
:101370006301042D132DD8CF80EA8BBB64960FB682
:10138000F894DEBF0FBECDBFDF91CF911F910F91BB
:10139000FF90EF90DF90CF90BF90AF909F908F9095
:1013A0007F906F905F904F903F902F9008956F9235
:1013B0007F928F929F92AF92BF92CF92DF92EF92E5
:1013C000FF920F931F93CF93DF93CDB7DEB7E097D4
:1013D0000FB6F894DEBF0FBECDBF0E9475238FEC11
:1013E00097E00197F1F700C000000E9418230E94C7
:1013F000DA2E80912401843039F4CE01019693DDF8
:1014000084E00E94EB2E08C0813031F4CE010D96AD
:101410008ADD8EE00E94EB2E0E9444238FE19EE441
:101420000197F1F700C00000CE010196EFD980913D
:10143000010590910205A0910305B0910405EBEE22
:10144000F1E080879187A287B3878091050590910D
:101450000605A0910705B091080584839583A683AE
:10146000B7838091090590910A05A0910B05B09171
:101470000C0580839183A283B3838091AE01909108
:10148000AF010297C1F49FE7E8E311E09150E0401B
:101490001040E1F700C000000E94DA2E8AE50E94A9
:1014A000EB2E0E941323EBEAF4E0808D8823E9F30E
:1014B0008091C3040EC02FE788E391E02150804063
:1014C0009040E1F700C000000E94DA2E8BE50E94F8
:1014D000EB2E80912501813019F40E94892361C08F
:1014E0002091900430919104409192045091930482
:1014F0006091940470919504809196049091970462
:10150000A2E00E947238209390043093910440939B
:101510009204509393046093940470939504809381
:101520009604909397042091880430918904409107
:101530008A0450918B0460918C0470918D04809189
:101540008E0490918F040E94723820938804309307
:10155000890440938A0450938B0460938C047093A5
:101560008D0480938E0490938F04EBEAF4E087A1BE
:101570008E5F87A387A18B3320F017A286A18F5F90
:1015800086A38091D1048C3330F0EBEAF4E016A20C
:1015900085A18F5F85A38091D004883110F01092CF
:1015A000D004EFE718E321E0E15010402040E1F7DC
:1015B00000C0000084E60E94EB2E0E9415230E94CA
:1015C00047278093D201809125018F3F09F443C0C2
:1015D0000E946025CE0149960E94FD25CE01859688
:1015E0000E94CC2621ED31E044E754E0BE01675E65
:1015F0007F4FCE0185960E946F278093D2016FEDB9
:1016000071E084E794E00E94702B8091D201609198
:10161000D101869FB0011124072E000C880B990B75
:101620000E94B434AB01BC018FED91E00E945D22B9
:101630008FED91E00E94EE1F609384047093850407
:10164000809386049093870484E794E00E94EC22C0
:10165000CE010D96CDDA8091C4018837DCF420915B
:101660001F05309120054091210550912205609180
:10167000230570912405809125059091260520323F
:10168000314A47405105610571058105910509F011
:1016900008F46BC01092B2011092B3011092B40121
:1016A0001092B50189E78093C4018091D201813005
:1016B00021F58091AA019091AB0102969093AB0124
:1016C0008093AA011092AD011092AC0160ED72E01E
:1016D0000E9425389093C3018093C20188359240BF
:1016E0002CF41092AF011092AE012CC182E090E078
:1016F0009093AF018093AE0125C11092C301109267
:10170000C2016091AC017091AD016E5F7F4F70932B
:10171000AD016093AC01072E000C880B990B0E9461
:10172000B4346B017C0120E030E046E153E4609189
:1017300004017091050180910601909107010E94BA
:1017400034339B01AC01C701B6010E942C36181638
:101750003CF482E090E09093AF018093AE01F2C040
:101760001092AF011092AE01EDC0CE0101960E9421
:10177000EE1F6B017C016093BE017093BF018093EB
:10178000C0019093C1018091D201682F70E080E088
:1017900090E00E94B4349B01AC01C701B6010E94E5
:1017A00037366B017C016093BA017093BB01809363
:1017B000BC019093BD0120E030E0A9010E941234E9
:1017C000882309F462C0809008019090090122E00A
:1017D00082169104A9F4A7019601C701B6010E94DF
:1017E000353320E030E040E05FE30E94373660931D
:1017F000B2017093B3018093B4019093B5012CC0F2
:10180000B4016150710980E090E00E94B2342091EF
:10181000B6013091B7014091B8015091B9010E94D1
:1018200037369B01AC01C701B6010E9435336B010D
:101830007C01B40180E090E00E94B2349B01AC01D5
:10184000C701B6010E9419346093B2017093B301CD
:101850008093B4019093B5018FEF881A980A909203
:10186000090180920801C090B201D090B301E090CC
:10187000B401F090B50120E030E0A901C701B60144
:101880000E941234811110C01AC082E090E090933F
:101890000901809308011092B2011092B3011092D5
:1018A000B4011092B5010BC02AE037ED43E25DE3CD
:1018B000C701B6010E941234882384F019C020E0C9
:1018C00030E0A9016091B6017091B7018091B80133
:1018D0009091B9010E941234882351F08091B00197
:1018E0009091B10102969093B1018093B00104C030
:1018F0001092B1011092B0016091B0017091B101EC
:1019000080E090E00E94B23420910001309101010A
:1019100040910201509103010E942C36181664F484
:1019200082E090E09093AF018093AE018091C4017A
:101930008E5F8093C40106C01092AF011092AE0179
:101940001092C4018091B2019091B301A091B401B1
:10195000B091B5018093B6019093B701A093B801FF
:10196000B093B901C0908404D0908504E0908604BF
:10197000F09087042FE632E143E85BE3C701B6014C
:101980000E9412348823BCF48091D2019091D1013D
:10199000899FC0011124019771F48091CF0190912A
:1019A000D00101969093D0018093CF011092CE0187
:1019B0001092CD0117C02FE632E143E05CE3C7018E
:1019C000B6010E942C3618166CF48091CD019091CE
:1019D000CE0101969093CE018093CD011092D0015B
:1019E0001092CF0160901F05709020058090210516
:1019F00090902205B0912305A0912405F091250532
:101A0000E0912605262D372D482D592D6B2F7A2F45
:101A10008F2F9E2F233F31404105510561057105F0
:101A20008105910509F0A0F484E0809324011092CF
:101A3000C5011092C6011092C7011092C801109200
:101A4000C9011092CA011092CB011092CC0177C04B
:101A50008091C40118165CF580912401843039F519
:101A60002091CF013091D00180910A0190910B011A
:101A700082179307C4F481E0809324016092C5012A
:101A80007092C6018092C7019092C801B093C901BB
:101A9000A093CA01F093CB01E093CC011092D00146
:101AA0001092CF0104C01092CE011092CD0180910E
:101AB0002401813009F043C02091CD013091CE0145
:101AC00080910A0190910B0182179307A4F5209150
:101AD000C5013091C6014091C7015091C801609184
:101AE000C9017091CA018091CB019091CC01205F16
:101AF000384D4F4F5F4F6F4F7F4F8F4F9F4FA22EED
:101B0000B32EC42ED52EE62EF72E082F192F262DF4
:101B1000372D482D592D6B2F7A2F8F2F9E2F0E94F6
:101B2000873849F040F084E0809324011092CE0180
:101B30001092CD0104C01092D0011092CF0180917B
:101B4000AE018093DA04E0960FB6F894DEBF0FBEC4
:101B5000CDBFDF91CF911F910F91FF90EF90DF905C
:101B6000CF90BF90AF909F908F907F906F9008958F
:101B700090E0FC013297EB30F10508F067C0EA5BBA
:101B8000FF4F0C9438382FE130E040E050E060E047
:101B900070E080E090E008952BE330E040E050E01A
:101BA00060E070E080E090E008952AE530E040E0F9
:101BB00050E060E070E080E090E0089528E730E0D9
:101BC00040E050E060E070E080E090E0089527E9B8
:101BD00030E040E050E060E070E080E090E00895A8
:101BE00025EB30E040E050E060E070E080E090E025
:101BF000089524ED30E040E050E060E070E080E0E7
:101C000090E0089523EF30E040E050E060E070E0C5
:101C100080E090E0089521E131E040E050E060E0B4
:101C200070E080E090E0089520E331E040E050E093
:101C300060E070E080E090E008952EE431E040E064
:101C400050E060E070E080E090E0089520E030E057
:101C500040E050E060E070E080E090E008952F9276
:101C60003F924F925F926F927F928F929F92AF922C
:101C7000BF92CF92DF92EF92FF920F931F93CF9379
:101C8000DF93CDB7DEB765970FB6F894DEBF0FBE12
:101C9000CDBF2C01862F4987622EA02E69DF2A87AF
:101CA0003B874C875D876E877F87888B998B2E2D2E
:101CB00030E040E050E060E070E080E090E02058EC
:101CC0003C4544495B4C6E40710981099109822E63
:101CD000932E342E752EB62FA72FF82FE92F202FF5
:101CE00030E040E050E060E070E080E090E004E050
:101CF0000E945038B12CC12CD12CE12CF12C00E0E9
:101D000010E00E947E3802E00E945038A22EB32ECE
:101D1000C42ED52EE62EF72E082F192F282D392D5B
:101D2000432D572D6B2F7A2F8F2F9E2F0E946938AE
:101D3000722E832E942E252E362EB72FA82FF92FF4
:101D4000262D30E040E050E060E070E080E090E080
:101D500004E00E945038A62CB12CC12CD12CE12CCF
:101D6000F12C00E010E00E947E38A22EB32EC42E8B
:101D7000D52EE62EF72EE82F192F04E00E945038BA
:101D80000E2F0E947E3804E00E945038A22EB32EFF
:101D9000C42ED52EE62EF72E082F192F272D382DDD
:101DA000492D522D632D7B2F8A2F9F2F0E9469383A
:101DB000222E332E4A8B5B8B662E772E8C8B9D8B3F
:101DC000920149823A8340E050E060E070E080E0B8
:101DD00090E003E00E945038822E932E442E552E20
:101DE000B62FA72FF82FE92F0E945038A22EB32E1E
:101DF000C42ED52EE62EF72E082F192F282D392D7B
:101E0000442D552D6B2F7A2F8F2F9E2F0E946938CE
:101E1000A980BA80C12CD12CE12CF12C00E010E07B
:101E20000E946938A22EB32EC42ED52EE62EF72E90
:101E3000E82F192F04E00E9450380E2F0E947E38A0
:101E4000A22EB32EC42ED52EE62EF72EE82F192F54
:101E500004E00E9450380E2F0E947E38A22EB32E2E
:101E6000C42ED52EE62EF72EE82F192F04E00E945F
:101E700050380E2F0E947E3807E00E945038A22E64
:101E8000B32EC42ED52EE62EF72E082F192F222D75
:101E9000332D4A895B89662D772D8C899D890E9417
:101EA0006938722E832E942EB52F662E572EF82F5A
:101EB000E92F298530E040E050E060E070E080E00C
:101EC00090E0AFEF0E947238AA84BB84CC84DD849A
:101ED000EE84FF84088919890E946938A22EB32EE6
:101EE000C42ED52EE62EF72EA82F192F02E00E9421
:101EF00050380A2F0E947E38A22EB32EC42ED52E23
:101F0000E62EF72EA82F192F04E00E9450380A2F32
:101F10000E947E38A22EB32EC42ED52EE62EF72E8A
:101F2000A82F192F04E00E9450380A2F0E947E38F3
:101F300007E00E945038A22EB32EC42ED52EE62ED6
:101F4000F72E082F192F272D382D492D5B2F662DA1
:101F5000752D8F2F9E2F0E94693865960FB6F894C5
:101F6000DEBF0FBECDBFDF91CF911F910F91FF90CC
:101F7000EF90DF90CF90BF90AF909F908F907F9029
:101F80006F905F904F903F902F900895AF92BF92C7
:101F9000CF92DF92EF92FF920F931F93CF93DF9335
:101FA000E12C0EE124E044E163E080EE97E057DEAF
:101FB000A22EB32EC42ED52ED62FF72EC82F192F12
:101FC000EBEAF4E082A593A5E7A006A125A140A530
:101FD00061A545DE209388043093890440938A04E8
:101FE00050938B0460938C0470938D0480938E04C3
:101FF00090938F04ED2E0C2F0E947E382093900436
:10200000309391044093920450939304609394040A
:10201000709395048093960490939704DF91CF91E9
:102020001F910F91FF90EF90DF90CF90BF90AF90F6
:1020300008954F925F926F927F928F929F92AF928C
:10204000BF92CF92DF92EF92FF920F931F93CF93A5
:10205000DF93CDB7DEB7A4970FB6F894DEBF0FBEFF
:10206000CDBF7C016B01209190043091910440918F
:10207000920450919304609194047091950480911E
:102080009604909197040E94EF3427EB39E540E8DD
:102090005FE30E9437362EEB37EF48E958E30E94A2
:1020A00037362B013C010E9416344B015C016983D9
:1020B0007A838B839C83C301B2010E94E6366D83D1
:1020C0007E838F83988719861A861B861C868B01D0
:1020D0009C0130580D871E872F87388B898A9A8AF2
:1020E000AB8ABC8A1D8A1E8A1F8A188E198E1A8E88
:1020F0001B8E1C8E1D8E1E8E1F8E18A280E090E0FF
:10210000A0E8BFE389A39AA3ABA3BCA3A601BE0129
:102110006F5F7F4FC7010E947E21A4960FB6F8948F
:10212000DEBF0FBECDBFDF91CF911F910F91FF900A
:10213000EF90DF90CF90BF90AF909F908F907F9067
:102140006F905F904F9008954F925F926F927F9241
:10215000AF92BF92CF92DF92EF92FF920F931F93B5
:10216000CF93DF93CDB7DEB7A4970FB6F894DEBF59
:102170000FBECDBF8C015B01209190043091910482
:10218000409192045091930460919404709195044D
:1021900080919604909197040E94EF3427EB39E5E3
:1021A00040E85FE30E9437362EEB37EF48E958E30B
:1021B0000E9437362B013C010E9416346B017C01D2
:1021C00069837A838B839C83C301B2010E94E636C4
:1021D0002B013C0177FA709477F870944D825E82FF
:1021E0006F82788619861A861B861C866D877E8785
:1021F0008F87988BC98ADA8AEB8AFC8A1D8A1E8AA5
:102200001F8A188E198E1A8E1B8E1C8E1D8E1E8E86
:102210001F8E18A280E090E0A0E8BFE389A39AA3F4
:10222000ABA3BCA3A501BE016F5F7F4FC8010E9495
:102230007E21A4960FB6F894DEBF0FBECDBFDF910E
:10224000CF911F910F91FF90EF90DF90CF90BF90B3
:10225000AF907F906F905F904F900895CF92DF92F4
:10226000EF92FF920F931F93CF93DF93CDB7DEB71B
:10227000C854D1090FB6F894DEBF0FBECDBF8C0194
:10228000CB016A017901AE01435F5F4FB8010E9443
:10229000DC21CE010D960E94B722F8018081918148
:1022A000A281B381B058898F9A8FAB8FBC8F848104
:1022B0009581A681B781B0588D8F9E8FAF8FB8A3BF
:1022C0000085118522853385305809A31AA32BA3D5
:1022D0003CA3CE0149960E94B722AE014F5F5F4FEB
:1022E000BE01675E7F4FCE010D960E94DC21CE01BC
:1022F00001960E94B72289819A81AB81BC818DA30E
:102300009EA3AFA3B8A78D859E85AF85B88989A701
:102310009AA7ABA7BCA7898D9A8DAB8DBC8D8DA7D5
:102320009EA7AFA7B8AB8D819E81AF81B88589ABE1
:102330009AABABABBCAB89899A89AB89BC898DABB5
:102340009EABAFABB8AF8D8D9E8DAF8DB8A189AF71
:102350009AAFABAFBCAF89859A85AB85BC8521961A
:102360008CAF9DAFAEAFBFAF21978D899E89AF89EE
:10237000B88D25968CAF9DAFAEAFBFAF259789A125
:102380009AA1ABA1BCA129968CAF9DAFAEAFBFAF58
:102390002997A701BE016B5D7F4FC6010E947E2178
:1023A000C85BDF4F0FB6F894DEBF0FBECDBFDF9125
:1023B000CF911F910F91FF90EF90DF90CF900895F4
:1023C0002F923F924F925F926F927F928F929F9245
:1023D000AF92BF92CF92DF92EF92FF920F931F9333
:1023E000CF93DF93CDB7DEB72C970FB6F894DEBF4F
:1023F0000FBECDBFFC011B0180809180A280B38005
:10240000C480D580E680F7804084518462847384E0
:10241000A5019401C701B6010E94BF3369877A877D
:102420008B879C87A5019401C501B4010E943736B2
:1024300069837A838B839C83A5019401C501B401D0
:102440000E9437364B015C01A7019601C701B60116
:102450000E9437369B01AC01C501B4010E9435339F
:102460000E94F03669837A838B839C8325E434E26F
:102470004FE75FE30E9437369B01AC01C301B20115
:102480000E94BF334B015C0115E0C501B4010E94FD
:10249000163420E030E040E450E40E949A366B01AC
:1024A0007C01C501B4010E94E63620E030E040E442
:1024B00050E40E949A364B015C012EEA39EC46E268
:1024C00057E4C701B6010E9437369B01AC01698110
:1024D0007A818B819C810E9434336B017C0121E5E0
:1024E00039E547E257E4C501B4010E943736A3013C
:1024F00092010E943533A70196010E94BF336B0100
:102500007C010E9416344B015C01C701B6010E9498
:10251000E63625E434E24FE75FE30E943736A50153
:1025200094010E94BF334B015C01115009F0ADCF03
:10253000C701B6010E94E6364B015C012AE83CE582
:102540004BED5BE30E9437366D837E838F839887E4
:10255000A50194016D817E818F8198850E94373617
:102560009B01AC0160E070E080E89FE30E9434339F
:102570000E94F0369B01AC0162E375EA82EC9AE4BA
:102580000E9419346D837E838F839887C701B601BB
:102590000E941634F101C082D182E282F382298541
:1025A0003A854B855C85248335834683578329810F
:1025B0003A814B815C810E94373669837A838B83B1
:1025C0009C832AE83CE54BED5BE36D817E818F8146
:1025D00098850E943736A50194010E943736A301E1
:1025E00092010E943533A50194010E9437369B0168
:1025F000AC0169817A818B819C810E9435332D8168
:102600003E814F8158850E943433F1016087718784
:102610008287938720E030E044E353E4C701B601AA
:102620000E94373628ED3FE049E450E40E94193417
:1026300020E030E048EC52E40E9437360E948134BA
:102640000BEA14E0F801618F728F838F948F20E082
:1026500030E044E353E4F101648175818681978120
:102660000E94373628ED3FE049E450E40E941934D7
:1026700020E030E048EC52E40E9437360E9481347A
:10268000F801658F768F878F90A3F1016085718542
:10269000828593850E948134F80161A372A383A38C
:1026A00094A32C960FB6F894DEBF0FBECDBFDF917A
:1026B000CF911F910F91FF90EF90DF90CF90BF903F
:1026C000AF909F908F907F906F905F904F903F90D2
:1026D0002F9008952F923F924F925F926F927F9228
:1026E0008F929F92AF92BF92CF92DF92EF92FF9222
:1026F0000F931F93CF93DF93CDB7DEB7AC970FB691
:10270000F894DEBF0FBECDBF1C017B018A01DB0147
:102710004D905D906D907C90C301B2010E94163483
:102720004B015C01F701C480D580E680F780C701CA
:10273000B6010E9416346DA37EA38FA398A7C30190
:10274000B2010E94E6362B013C01C701B6010E948E
:10275000E6366B017C0177FA709477F87094D501B6
:10276000C401B05889A79AA7ABA7BCA72DA13EA1C9
:102770004FA158A5C301B2010E94373669837A83FD
:102780008B839C83A3019201C701B6010E94373657
:102790006D837E838F83988789869A86AB86BC8675
:1027A000D701C601B0588D879E87AF87B88B8DA1A2
:1027B0009EA1AFA1B8A5898B9A8BAB8BBC8B1D8AD0
:1027C0001E8A1F8A188E9C01AD0169A57AA58BA56A
:1027D0009CA50E943736698F7A8F8B8F9C8F29A595
:1027E0003AA54BA55CA5C701B6010E9437366D8F8F
:1027F0007E8F8F8F98A349A25AA26BA27CA2A801B8
:10280000BE016F5F7F4FC1010E947E21AC960FB663
:10281000F894DEBF0FBECDBFDF91CF911F910F9116
:10282000FF90EF90DF90CF90BF90AF909F908F90F0
:102830007F906F905F904F903F902F9008951F92E0
:102840000F920FB60F9211240BB60F922F938F9306
:102850009F93AF93BF93EF93FF931092C3049BB3E7
:1028600080EF89278BBB8CB18093F8018091F901AF
:102870009091FA01A091FB01B091FC01BA2FA92F10
:10288000982F88278093F9019093FA01A093FB0178
:10289000B093FC018091F9019091FA01A091FB01A4
:1028A000B091FC0188278093F9019093FA01A093DD
:1028B000FB01B093FC012091F8018091F901909106
:1028C000FA01A091FB01B091FC01822B8093F901E8
:1028D0009093FA01A093FB01B093FC018091110148
:1028E0008C3008F086C080911101843028F5EBEA25
:1028F000F4E080819181A281B381892F9A2FAB2F3F
:10290000BB27A7FDBA9580839183A283B38380817F
:102910009181A281B381BB2780839183A283B383FA
:102920002091F80180819181A281B381B22B8083B3
:102930009183A283B38351C080911101883028F51F
:10294000EBEAF4E084819581A681B781892F9A2FE3
:10295000AB2FBB27A7FDBA9584839583A683B78346
:1029600084819581A681B781BB2784839583A683C3
:10297000B7832091F80184819581A681B781B22B1C
:1029800084839583A683B78328C0809111018C30FE
:1029900020F5EBEAF4E080859185A285B385892F47
:1029A0009A2FAB2FBB27A7FDBA9580879187A28767
:1029B000B38780859185A285B385BB278087918762
:1029C000A287B3872091F80180859185A285B38580
:1029D000B22B80879187A287B387809111018F5F87
:1029E00080931101809111018C3019F48FEF809345
:1029F0001101809110018C3008F086C08091100187
:102A0000843028F5EBEAF4E084859585A685B785C2
:102A1000892F9A2FAB2FBB27A7FDBA95848795875F
:102A2000A687B78784859585A685B785BB278487C4
:102A30009587A687B7872091F80184859585A68517
:102A4000B785B22B84879587A687B78751C08091B9
:102A50001001883028F5EBEAF4E080899189A28999
:102A6000B389892F9A2FAB2FBB27A7FDBA95808BEF
:102A7000918BA28BB38B80899189A289B389BB2763
:102A8000808B918BA28BB38B2091F80180899189E7
:102A9000A289B389B22B808B918BA28BB38B28C078
:102AA000809110018C3020F5EBEAF4E0848995895F
:102AB000A689B789892F9A2FAB2FBB27A7FDBA9577
:102AC000848B958BA68BB78B84899589A689B789CA
:102AD000BB27848B958BA68BB78B2091F8018489BB
:102AE0009589A689B789B22B848B958BA68BB78BDA
:102AF000809110018F5F80931001809110018C30C4
:102B000019F48FEF8093100180910F01843020F52C
:102B100080910F018230A0F0EBEAF4E084A595A546
:102B2000892F992795A784A784A595A5992795A767
:102B300084A72091F80184A595A5922B95A784A739
:102B400080910F018F5F80930F0180910F0184307E
:102B500019F48FEF80930F0180910E01803108F0FE
:102B60008BC080910E01843008F47AC080910E01F0
:102B7000883028F5EBEAF4E0818D928DA38DB48D39
:102B8000892F9A2FAB2FBB27A7FDBA95818F928FE4
:102B9000A38FB48F818D928DA38DB48DBB27818F30
:102BA000928FA38FB48F2091F801818D928DA38D88
:102BB000B48DB22B818F928FA38FB48F51C080912F
:102BC0000E018C3028F5EBEAF4E0858D968DA78D0B
:102BD000B0A1892F9A2FAB2FBB27A7FDBA95858F60
:102BE000968FA78FB0A3858D968DA78DB0A1BB279B
:102BF000858F968FA78FB0A32091F801858D968D34
:102C0000A78DB0A1B22B858F968FA78FB0A328C0B8
:102C100080910E01803120F5EBEAF4E081A192A1D0
:102C2000A3A1B4A1892F9A2FAB2FBB27A7FDBA95DB
:102C300081A392A3A3A3B4A381A192A1A3A1B4A1B0
:102C4000BB2781A392A3A3A3B4A32091F80181A1E0
:102C500092A1A3A1B4A1B22B81A392A3A3A3B4A3D5
:102C600080910E018F5F80930E0180910E01803163
:102C700019F48FEF80930E0180910D01873008F0D9
:102C800054C080910D01811105C08091F80180939D
:102C9000D0043CC080910D01813029F48091F8016D
:102CA0008093D10433C080910D01823029F480914A
:102CB000F8018093D2042AC080910D01833029F459
:102CC0008091F8018093D30421C080910D0184305C
:102CD00029F48091F8018093D40418C080910D01EB
:102CE0008530A0F0EBEAF4E082A593A5892F99271F
:102CF00093A782A782A593A5992793A782A720913E
:102D0000F80182A593A5922B93A782A780910D012C
:102D10008F5F80930D0180910D01873031F48FEF2B
:102D200080930D0181E08093F7018091F9019091EA
:102D3000FA01A091FB01B091FC018C3A9440AF43A1
:102D4000BF4329F41092F701109211013FC0809106
:102D5000F9019091FA01A091FB01B091FC018C3A2C
:102D60009540AF43BF4319F4109210012FC08091DA
:102D7000F9019091FA01A091FB01B091FC018C3A0C
:102D80009B40AF43BF4319F410920F011FC08091C5
:102D9000F9019091FA01A091FB01B091FC018C3AEC
:102DA0009E40AF43BF4319F410920E010FC08091B3
:102DB000F9019091FA01A091FB01B091FC018C3ACC
:102DC0009F40AF43BF4311F410920D018091D7048F
:102DD0009091D8048091F7018823A9F081E0809335
:102DE0002501EBEAF4E0808F57988FEF9FEF95A7CE
:102DF00084A71092F7011092F9011092FA01109233
:102E0000FB011092FC01FF91EF91BF91AF919F9157
:102E10008F912F910F900BBE0F900FBE0F901F90B0
:102E200018952F923F924F925F926F927F928F925E
:102E30009F92AF92BF92CF92DF92EF92FF920F9349
:102E40001F93CF93DF93CDB7DEB7C854D1090FB628
:102E5000F894DEBF0FBECDBFFC012A013B01322E2C
:102E600029961FAF0EAF299780809180A280B380F2
:102E7000C480D580E680F78020E030E04AE754E463
:102E800060857185828593850E9419346D837E8368
:102E90008F839887C501B4010E94E63669837A83DF
:102EA0008B839C83C501B4010E94163469877A879D
:102EB0008B879C8720E030EE4BEF54E4C301B201D6
:102EC0000E9434336EA77FA788AB99ABC701B601C8
:102ED0000E94163460933D0270933E0280933F023D
:102EE00090934002C701B6010E94E636609301024A
:102EF0007093020280930302909304022EE23FE259
:102F00004BE15CE469857A858B859C850E94373628
:102F100029853A854B855C850E9437364B015C01DB
:102F20002BE335E24AE15CE469817A818B819C8103
:102F30000E94373629813A814B815C810E94373665
:102F4000698B7A8B8B8B9C8B9B01AC01C501B40187
:102F50000E9435336D8B7E8B8F8B988F0E94F0365D
:102F60002B013C019B01AC010E9435336B017C01BC
:102F70002D813E814F8158850E9435332D813E81C0
:102F80004F8158850E943736698F7A8F8B8F9C8F3F
:102F90002EE23FE24BE15CE4C501B4010E9437360A
:102FA00069A37AA38BA39CA32D813E814F81588571
:102FB000C701B6010E9435332D813E814F8158856E
:102FC0000E9437366B017C012EE23FE24BE15CE46C
:102FD000C501B4010E9437364B015C012BE335E299
:102FE0004AE15CE469897A898B899C890E94373639
:102FF0009B01AC01C501B4010E9435332D893E8986
:103000004F89588D0E9419349B01AC01C701B6014C
:103010000E9435330E94F0364B015C01A3019201FE
:103020006D817E818F8198850E943533A501940141
:103030000E94193423966CAF7DAF8EAF9FAF23975C
:1030400020E839EF44E858E469817A818B819C81DA
:103050000E94373629853A854B855C850E94373634
:103060006B017C01A5019401C301B2010E943736B6
:103070009B01AC01C701B6010E94193427966CAFC1
:103080007DAF8EAF9FAF279723962CAD3DAD4EAD54
:103090005FAD239769817A818B819C810E9437364D
:1030A0006B017C0127962CAD3DAD4EAD5FAD2797F2
:1030B00069857A858B859C850E9437369B01AC019A
:1030C000C701B6010E943433698F7A8F8B8F9C8F32
:1030D00023962CAD3DAD4EAD5FAD239769857A85C6
:1030E0008B859C850E9437366B017C0127962CAD21
:1030F0003DAD4EAD5FAD279769817A818B819C8113
:103100000E9437369B01AC01C701B6010E943533DE
:103110006D8B7E8B8F8B988F0DE313E0298D3A8D0D
:103120004B8D5C8DCA01B9010E943533D8011496CC
:103130006D937D938D939C9317972D893E894F892D
:10314000588DCA01B9010E943533F8016087718733
:103150008287938720E030E040E950E4698D7A8DE2
:103160008B8D9C8D0E943736298D3A8D4B8D5C8DD1
:103170000E94373620E030E040EC5FE30E943433B9
:10318000D8011C966D937D938D939C931F9721EE90
:1031900036E446EA50E46D897E898F89988D0E94D5
:1031A0003736298D3A8D4B8D5C8D0E943736F8016C
:1031B000608B718B828B938B05E712E08D899E89E2
:1031C000AF89B88DB058F80184839583A683B783FF
:1031D000898D9A8DAB8DBC8D80879187A287B387AF
:1031E00020E030E040E450EC6D897E898F89988D35
:1031F0000E943736298D3A8D4B8D5C8D0E94373673
:10320000D8011C966D937D938D939C931F97298D68
:103210003A8D4B8D5C8DCA01B9010E9437366B0126
:103220007C012D893E894F89588DCA01B9010E94C0
:1032300037369B01AC01C701B6010E94343327ED3C
:1032400033EB4DED5FE30E943736F801608B718BF5
:10325000828B938BA50194016AE979E187EC95E46F
:103260000E9419346BAF7CAF8DAF9EAF232D30E041
:10327000A9014D5F5F4F249FC001259F900D349F92
:10328000900D112499230CF40196959587958EAB9A
:10329000882309F4F6C3412C212C33243394F1E024
:1032A000F98B19A61AA61BA61CA61DA21EA21FA258
:1032B00018A61FAA18AE19AE1AAE19A21AA21BA2FE
:1032C0001CA229864DA6232C29852215D8F42F5F10
:1032D0002987622F70E06E5F7F4F072E000C880BEE
:1032E000990B0E94B4349B01AC016BAD7CAD8DADEC
:1032F0009EAD0E949A3669A77AA78BA79CA73985AD
:103300003DA7212C44E0431508F01CC289852812F2
:1033100001C1422C512CB201052C000C880B990BD9
:103320000E94B4346B017C019B01AC0160E070E051
:1033300080E09FE30E9419344B015C01A5019401D8
:1033400060E070E080E89FE30E9434330E94F03632
:1033500069837A838B839C83632C712C430184184B
:10336000950891E0891A9108660C771C660C771C09
:10337000D301A35CBC4F5D01A701960160E070E042
:1033800080E89FE30E94193420E030E040E85FE3EA
:103390000E94353329813A814B815C810E94373606
:1033A0002D893E894F89588D0E943736880C991C8B
:1033B000880C991C8401035C1C4FF8012081318129
:1033C000428153810E943736D5016D937D938D9351
:1033D0009C931397F301EB58FD4F5F01F401EB58F9
:1033E000FD4F20813181428153816D897E898F8992
:1033F000988D0E9437363B014C01D8012D913D91AB
:103400004D915C91698D7A8D8B8D9C8D0E943736A4
:10341000A70196010E9419349B01AC01C401B301BC
:103420000E94353329813A814B815C810E94373675
:10343000F5016083718382839383820101501109B6
:10344000C0903D02D0903E02E0903F02F0904002DA
:10345000000F111F000F111FF801E75CFD4F808066
:103460009180A280B380440C551C440C551C9201E1
:1034700023503E4F390103501E4FD8012D913D91ED
:103480004D915C91C701B6010E94373669837A83FA
:103490008B839C83209101023091020240910302B0
:1034A00050910402C501B4010E9437369B01AC0162
:1034B00069817A818B819C810E943533F30160831D
:1034C0007183828393839201275C3D4F2901A5017B
:1034D0009401C701B6010E9437366B017C0120912F
:1034E0000102309102024091030250910402D8017E
:1034F0006D917D918D919C910E9437369B01AC011D
:10350000C701B6010E943433F20160837183828364
:10351000938318C1FDA50F2F10E0229C6001112498
:10352000009F4001019F900C900C11248C189D0865
:10353000092C000CAA08BB08C501B4010E94B434D0
:103540000E94F0364B015C01B801110F880B990BFA
:103550000E94B43469837A838B839C8320E030E0BB
:1035600040E85FE30E9434336D837E838F839887C6
:103570009B01AC010E9437362B013C010D2C000C45
:10358000EE08FF08C701B6010E94B4349B01AC01EC
:10359000C301B2010E9434330E94F036A5019401A8
:1035A0000E9419346B017C0129813A814B815C8135
:1035B000CA01B9010E94353320E030E040E85FE302
:1035C0000E943433A50194010E9419346D877E87CF
:1035D0008F87988B832D90E04985242F30E04C0114
:1035E000821A930A8401021B130B0F5F1F4F3C01C9
:1035F000660C771C660C771CC301835C9C4F5C01D6
:1036000020E030E040E85FE369817A818B819C8132
:103610000E9435336D8F7E8F8F8F98A3298D3A8DC1
:103620004B8D5C8D6D857E858F8598890E943736A0
:10363000880C991C880C991CD401A35CBC4F2D01EB
:103640002D913D914D915C910E94373629813A81AF
:103650004B815C810E9419346AAB7BAB8CAB9DAB18
:10366000000F111F000F111FF801E35CFC4F2081B8
:10367000318142815381C701B6010E9437362D81C5
:103680003E814F8158850E9419349B01AC016AA983
:103690007BA98CA99DA90E9434339B01AC016D8D3F
:1036A0007E8D8F8D98A10E943736F50160837183DE
:1036B0008283938393012B583D4F3901F401EB58DA
:1036C000FD4F2081318142815381698D7A8D8B8DAF
:1036D0009C8D0E9437364B015C01D2012D913D91AA
:1036E0004D915C916D897E898F89988D0E943736C6
:1036F00029813A814B815C810E9419349B01AC0184
:10370000C501B4010E9434332D853E854F8558890B
:103710000E9437364B015C01F801EB58FD4F2081C8
:10372000318142815381C701B6010E9437369B0126
:10373000AC01C501B4010E943433F301608371838D
:1037400082839383F9890F2F10E0C801880F991F96
:10375000880F991FFC01E454FB4FC590D590E5906C
:10376000F490FC01E455FE4F25913591459154911B
:103770006EA57FA588A999A90E9437369B01AC0147
:10378000C701B6010E94353329A53AA54BA55CA512
:103790000E94373669837A838B839C83211038C0DB
:1037A000032D10E0000F111F000F111FF801EB583F
:1037B000FD4F20813181428153810E9437369B0128
:1037C000AC0169A17AA18BA19CA10E94353369A3A8
:1037D0007AA38BA39CA3F801E35CFC4F2081318189
:1037E0004281538169817A818B819C810E94373625
:1037F0009B01AC016DA17EA18FA198A50E943433DD
:103800006DA37EA38FA398A729892F5F298B32C12F
:10381000C8010196880F991F880F991FFC01E45475
:10382000FB4F85909590A590B49084559E4FFC01D8
:1038300025913591459154916EA57FA588A999A9A7
:103840000E9437369B01AC01C501B4010E9435339B
:1038500029A53AA54BA55CA50E9437366D877E87C2
:103860008F87988B022D10E0C801880F991F880F51
:10387000991FFC01E75CFD4FC080D180E280F3809E
:10388000FC01E350FE4F40805180628073802981AB
:103890003A814B815C81C701B6010E9437364B01EA
:1038A0005C012D853E854F855889C301B2010E9478
:1038B00037369B01AC01C501B4010E9435336D83DD
:1038C0007E838F839887A32CB12CAA0CBB1CAA0CD7
:1038D000BB1C95012B583D4FD9018D919D910D90A9
:1038E000BC91A02D8D8F9E8FAF8FB8A32D813E816F
:1038F0004F815885BC01CD010E9437369B01AC0138
:1039000069A17AA18BA19CA10E94353369A37AA3F6
:103910008BA39CA3F501E35CFC4F80809180A28087
:10392000B3802D813E814F815885C501B4010E942D
:1039300037369B01AC016DA17EA18FA198A50E9495
:1039400034336DA37EA38FA398A720E030E0A901B4
:103950006D897E898F89988D0E942C3618160CF0FF
:1039600054C0A301920169817A818B819C810E945C
:1039700037362B013C01A70196016D857E858F8529
:1039800098890E9437369B01AC01C301B2010E94A5
:1039900034336B017C01B801110F880B990B0E9425
:1039A000B4349B01AC01C701B6010E9437369B01BC
:1039B000AC01C501B4010E9437366B017C01BDA585
:1039C0006B2F70E080E090E00E94B43420E030E0A3
:1039D00040E85FE30E9435332D893E894F89588D39
:1039E0000E9437369B01AC01C701B6010E94193411
:1039F0009B01AC016FA978AD89AD9AAD0E943533BA
:103A00006FAB78AF89AF9AAF32C0A30192016981E1
:103A10007A818B819C810E9437364B015C01A70122
:103A200096016D857E858F8598890E9437369B012A
:103A3000AC01C501B4010E9434339B01AC016D8D12
:103A40007E8D8F8D98A10E943736298D3A8D4B8DB2
:103A50005C8D0E9437369B01AC016FA978AD89ADB2
:103A60009AAD0E9435336FAB78AF89AF9AAFE989D1
:103A7000EE5FE98B23943394FEA9F31508F024CC70
:103A80000CC01DA21EA21FA218A61FAA18AE19AE16
:103A90001AAE19A21AA21BA21CA223962CAD3DADF0
:103AA0004EAD5FAD23976DA17EA18FA198A50E9419
:103AB00037366B017C0123962CAD3DAD4EAD5FAD2D
:103AC000239769A17AA18BA19CA10E9437364B0153
:103AD0005C0127962CAD3DAD4EAD5FAD27976DA136
:103AE0007EA18FA198A50E9437369B01AC01C5012C
:103AF000B4010E9435332996AEADBFAD29976D93C1
:103B00007D938D939C9313978FA998ADA9ADBAAD72
:103B10002996EEADFFAD299784839583A683B7835D
:103B200029A13AA14BA15CA127966CAD7DAD8EADCC
:103B30009FAD27970E9437369B01AC01C701B601A4
:103B40000E9434332996AEADBFAD299718966D9378
:103B50007D938D939C931B97C85BDF4F0FB6F894B2
:103B6000DEBF0FBECDBFDF91CF911F910F91FF90B0
:103B7000EF90DF90CF90BF90AF909F908F907F900D
:103B80006F905F904F903F902F900895CF93DF9369
:103B9000CBE9D0E01882AAE9B0E01C92EDE9F0E0B0
:103BA00010828881826088838C9188698C9380815F
:103BB0008E60808387E68093990010929800DF9151
:103BC000CF9108958F929F92AF92BF92CF92DF9242
:103BD000EF92FF920F931F93CF93DF93CDB7DEB792
:103BE00029970FB6F894DEBF0FBECDBF0E94DA2E24
:103BF00080E50E94EB2E5E018AE0A80EB11C0E94B7
:103C0000EF2EC82ED12CDC2CCC24D9820E94EF2E92
:103C1000C82ACA820E94EF2EE82EF12CFE2CEE2438
:103C2000FB820E94EF2EE82AEC820E94EF2E082FE2
:103C300010E0102F00271D830E94EF2E4801882AD4
:103C40008E820E94EF2E8F830E94EF2E88870E9423
:103C5000EF2E89878E010F5F1F4FF80181918F0131
:103C60000E94EB2E8FEC97E00197F1F700C0000067
:103C70000A151B0591F70E94EF2E882309F4BFCF88
:103C80008F81811115C0B601DD0C880B990B0E9444
:103C9000B43420E030E64AE656E40E9419346093DA
:103CA00001057093020580930305909304051BC0E2
:103CB000B601DD0C880B990B0E94B43420E030E68D
:103CC0004AE656E40E941934E1E0F5E0608371832E
:103CD0008283938380819181A281B381B058808354
:103CE0009183A283B3838885811115C0B701FF0C2E
:103CF000880B990B0E94B43420E030E64AE656E483
:103D00000E9419346093050570930605809307059A
:103D1000909308051BC0B701FF0C880B990B0E94FC
:103D2000B43420E030E64AE656E40E941934E5E077
:103D3000F5E0608371838283938380819181A28186
:103D4000B381B05880839183A283B3838985811125
:103D500015C0B401990C880B990B0E94B43420E073
:103D600030E64AE656E40E941934609309057093E0
:103D70000A0580930B0590930C051BC0B401990CA8
:103D8000880B990B0E94B43420E030E64AE656E4F2
:103D90000E941934E9E0F5E06083718382839383A4
:103DA00080819181A281B381B05880839183A28365
:103DB000B38329960FB6F894DEBF0FBECDBFDF9157
:103DC000CF911F910F91FF90EF90DF90CF90BF9018
:103DD000AF909F908F9008951F920F920FB60F9201
:103DE00011240BB60F922F933F934F935F936F93D2
:103DF0007F938F939F93AF93BF93EF93FF938091A4
:103E00000B0490919C00E82FF0E0E856FB4F908364
:103E10008F5F873019F080930B049DC010920B04C4
:103E2000E8E9F4E0808190E0982F882790930A04D5
:103E3000809309048091090490910A048827909343
:103E40000A04809309048091090490910A04218155
:103E5000822B90930A0480930904828190E0982F2A
:103E60008827909308048093070480910704909119
:103E7000080488279093080480930704809107041E
:103E8000909108042381822B909308048093070467
:103E9000848190E0982F88279093060480930504EE
:103EA00080910504909106048827909306048093DE
:103EB000050480910504909106042581822B90933E
:103EC0000604809305046091090470910A04072E8A
:103ED000000C880B990B0E94B43420E030E64AE6CF
:103EE00056E40E9419346093010570930205809393
:103EF0000305909304056091070470910804072E50
:103F0000000C880B990B0E94B43420E030E64AE69E
:103F100056E40E941934609305057093060580935A
:103F20000705909308056091050470910604072E1B
:103F3000000C880B990B0E94B43420E030E64AE66E
:103F400056E40E9419346093090570930A05809322
:103F50000B0590930C05FF91EF91BF91AF919F914D
:103F60008F917F916F915F914F913F912F910F9022
:103F70000BBE0F900FBE0F901F901895DC01FB0138
:103F80004D915D916D917C91139740835183628334
:103F9000738314964D915D916D917C911797448335
:103FA00055836683778318968D919D910D90BC9172
:103FB000A02D80879187A287B3870895FC01A62F43
:103FC000B72F409641915191619171914D935D93BD
:103FD0006D937D93E817F907A9F708954F925F92C3
:103FE0006F927F928F929F92AF92BF92CF92DF9209
:103FF000EF92FF92CF93DF9300D000D0CDB7DEB722
:10400000FC0180809180A280B380C480D580E6804E
:10401000F7804084518462847384A5019401C501B2
:10402000B4010E94373669837A838B839C83A7010E
:104030009601C701B6010E9437369B01AC01698128
:104040007A818B819C810E94353369837A838B834B
:104050009C83A5019401C501B4010E9437364B0130
:104060005C01A7019601C701B6010E9437369B018A
:10407000AC01C501B4010E9435336B017C01A30181
:104080009201C301B2010E9437369B01AC01C70106
:10409000B6010E9435330E94F0360F900F900F90BA
:1040A0000F90DF91CF91FF90EF90DF90CF90BF9076
:1040B000AF909F908F907F906F905F904F900895FA
:1040C0004F925F926F927F928F929F92AF92BF9228
:1040D000CF92DF92EF92FF92CF93DF93CDB7DEB70F
:1040E00028970FB6F894DEBF0FBECDBF9C01DC0150
:1040F0008D909D90AD90BC9013971496CD90DD90CF
:10410000ED90FC90179718968D919D910D90BC9114
:10411000A02D8D839E83AF83B887F9014484558495
:1041200066847784A5019401C501B4010E943736E5
:1041300069837A838B839C83A7019601C701B601AB
:104140000E9437369B01AC0169817A818B819C8109
:104150000E94353369837A838B839C832D813E81D2
:104160004F815885CA01B9010E9437369B01AC01C5
:1041700069817A818B819C810E94353369837A833E
:104180008B839C83A5019401C501B4010E9437363D
:104190004B015C01A7019601C701B6010E943736A9
:1041A0009B01AC01C501B4010E9435336B017C0158
:1041B0002D813E814F815885CA01B9010E94373651
:1041C0009B01AC01C701B6010E9435336B017C0134
:1041D000A3019201C301B2010E9437369B01AC01D9
:1041E000C701B6010E9435330E94F03628960FB6FB
:1041F000F894DEBF0FBECDBFDF91CF91FF90EF905F
:10420000DF90CF90BF90AF909F908F907F906F90F6
:104210005F904F900895CF92DF92EF92FF920F93AD
:104220001F93CF93DF93EC018B01FB012081318140
:1042300042815381688179818A819B810E943736CE
:104240006B017C01F80124813581468157816C81A5
:104250007D818E819F810E9437369B01AC01C70111
:10426000B6010E9435336B017C01F8012085318550
:1042700042855385688579858A859B850E94373676
:104280009B01AC01C701B6010E943533DF91CF918C
:104290001F910F91FF90EF90DF90CF900895CF92F4
:1042A000DF92EF92FF920F931F93CF93DF93EC0176
:1042B000E62EF72E042F152F6C012CE0C20ED11C18
:1042C0006991799189919991F70121913191419168
:1042D00051917F010E943533F8016193719381936D
:1042E00091938F01CC15DD0559F7DF91CF911F9187
:1042F0000F91FF90EF90DF90CF9008954F925F92D3
:104300006F927F928F929F92AF92BF92CF92DF92E5
:10431000EF92FF920F931F93CF93DF936A01862E44
:10432000972E3A012CE0620E711C482E592E5C012A
:10433000ECE0AE0EB11C7601F60110821182128201
:104340001382C42DD52D8401699179918991999118
:10435000F80120813181428153810E9437369B01CF
:10436000AC01F70160817181828193810E943533B4
:10437000F7016083718382839383045F1F4FCA15A3
:10438000DB0511F7F4E0CF0ED11C24E0820E911C66
:10439000C614D70481F6DF91CF911F910F91FF9042
:1043A000EF90DF90CF90BF90AF909F908F907F90D5
:1043B0006F905F904F9008958F929F92AF92BF92AF
:1043C000EF92FF920F931F93CF93DF93EC018B013A
:1043D0007A01FB0120853185428553856C817D8181
:1043E0008E819F810E9437364B015C01F801248148
:1043F000358146815781688579858A859B850E94AC
:1044000037369B01AC01C501B4010E943433F7017A
:104410006083718382839383F8012081318142819B
:104420005381688579858A859B850E9437364B0143
:104430005C01F80120853185428553856881798149
:104440008A819B810E9437369B01AC01C501B40172
:104450000E943433F7016483758386839783F80160
:104460002481358146815781688179818A819B8148
:104470000E9437364B015C01F80120813181428175
:1044800053816C817D818E819F810E9437369B0193
:10449000AC01C501B4010E943433F7016087718714
:1044A00082879387DF91CF911F910F91FF90EF90BB
:1044B000BF90AF909F908F900895CF92DF92EF9230
:1044C000FF92CF93DF93EC016A017B019A01AB016C
:1044D000688179818A819B810E94373668837983DC
:1044E0008A839B83A70196016C817D818E819F8148
:1044F0000E9437366C837D838E839F83A70196014C
:10450000688579858A859B850E9437366887798793
:104510008A879B87DF91CF91FF90EF90DF90CF90BC
:104520000895CF92DF92EF92FF920F931F93CF9354
:10453000DF936A017B01EC018C01005F1F4FA70133
:104540009601688179818A819B810E9437366993BF
:10455000799389939993C017D10789F7DF91CF9108
:104560001F910F91FF90EF90DF90CF900895CF9221
:10457000DF92EF92FF92CF93DF93EC012FDD6B017F
:104580007C019B01AC01688179818A819B810E94B9
:104590001934688379838A839B83A70196016C8190
:1045A0007D818E819F810E9419346C837D838E83EF
:1045B0009F83A7019601688579858A859B850E94DE
:1045C0001934688779878A879B87DF91CF91FF901D
:1045D000EF90DF90CF900895CF92DF92EF92FF920D
:1045E0000F931F93CF93DF938C016ADD6B017C01E6
:1045F000E801005F1F4FA7019601688179818A81D8
:104600009B810E9419346993799389939993C01778
:10461000D10789F7DF91CF911F910F91FF90EF9014
:10462000DF90CF900895579A08950C943C2E0895EA
:10463000C9CA089584B3886384BB82B1886382B990
:10464000ABE8B0E01C92EAE8F0E0108210928C0037
:104650008C918A6A8C938081816180838FEF9FEF38
:1046600090938100809380001092870010928600C2
:1046700010928500109284001092830010928200A4
:1046800085B3877C85BB089585B3877C85BB809186
:104690001A05882311F0AD9A01C0AD9880911B05D1
:1046A000882311F0AC9A01C0AC9880911C05882336
:1046B00011F0AB9A01C0AB9880911405909115054B
:1046C000909387008093860080911605909117053E
:1046D000909385008093840080911805909119052E
:1046E0009093830080938200089510921505109294
:1046F00014051092170510921605109219051092C4
:10470000180510921A0510921B0510921C05BCCFBB
:104710000895EF92FF920F931F93CF93DF93CBEA0D
:10472000D4E019AA18AA688179818A819B8108E15D
:1047300014E00E94B43420E030E048EC52E40E94DF
:104740001934D8016D937D938D939C9313976C814D
:104750007D818E819F810E94B43420E030E048EC5E
:1047600052E40E941934F801648375838683978329
:10477000688579858A859B850E94B43420E030E085
:1047800048EC52E40E941934D80118966D937D9339
:104790008D939C931B976C857D858E859F850F2EB1
:1047A000FCE0EF2EF4E0FF2EF02D0E94B43420E068
:1047B00030E04AE754E40E941934F70160837183C2
:1047C00082839383688979898A899B890E94B4341A
:1047D00020E030E04AE754E40E941934D7011496EF
:1047E0006D937D938D939C9317976C897D898E89AA
:1047F0009F890E94B43420E030E04AE754E40E94EC
:104800001934F70160877187828793870E94C60FEA
:10481000E4E3F4E0D8014D915D916D917C911397A3
:10482000408351836283738314964D915D916D91A2
:104830007C911797448355836683778318964D91AF
:104840005D916D917C911B9740875187628773873B
:1048500060E474E0C8010E94191068E274E0C701C6
:104860000E941910698D7A8D8B8D9C8D0FE914E053
:104870000E94B43420E836E948E15BE40E94193430
:1048800025E33AEF4EE85CE30E943736F801608397
:104890007183828393836D8D7E8D8F8D98A10E940D
:1048A000B43420E836E948E15BE40E94193425E39A
:1048B0003AEF4EE85CE30E943736D80114966D93C8
:1048C0007D938D939C93179710922501DF91CF9143
:1048D0001F910F91FF90EF9008952F923F924F926A
:1048E0005F926F927F928F929F92AF92BF92CF9280
:1048F000DF92EF92FF920F931F93CF93DF93CDB789
:10490000DEB764970FB6F894DEBF0FBECDBF1C01B3
:1049100084E394E063DB2B013C019B01AC010E942A
:1049200037369B01AC0161EB7AE186E791E50E94A5
:1049300019346D877E878F87988B20E030E040E4C4
:1049400050E4C301B2010E949A366B017C0120E061
:1049500030E040E850E4C301B2010E949A362B01D6
:104960003C0104E314E0F80180849184A284B384C0
:10497000A5019401C501B4010E94373628E938E049
:1049800045E05CE30E9437362AEC3EEF43E156E512
:104990000E943736A30192010E941934698B7A8BE9
:1049A0008B8B9C8B20E030E040E85FE36D857E855B
:1049B0008F8598890E94353329893A894B895C898A
:1049C0000E9434332B013C0121EF39E445EB57EDD4
:1049D000F80160817181828193810E943736A30141
:1049E00092010E943736A70196010E94193469830B
:1049F0007A838B839C8321EF39E445EB57EDF801F3
:104A000064817581868197810E9437369B01AC0154
:104A1000C301B2010E943736A70196010E941934E2
:104A20006D837E838F83988721EF39E445EB57EDC3
:104A3000C501B4010E9437362B013C0120E030E073
:104A400040E450E46D857E858F8598890E943736D5
:104A500020E030E040E85FE30E94353329893A895D
:104A60004B895C890E9434339B01AC01C301B201C4
:104A70000E943736A70196010E94193469877A8708
:104A80008B879C87B101CE0101960E941910649614
:104A90000FB6F894DEBF0FBECDBFDF91CF911F914F
:104AA0000F91FF90EF90DF90CF90BF90AF909F90CD
:104AB0008F907F906F905F904F903F902F900895D0
:104AC0007F928F929F92AF92BF92CF92DF92EF929E
:104AD000FF920F931F93CF93DF93CDB7DEB7689705
:104AE0000FB6F894DEBF0FBECDBF0F2EFAE07F2EBB
:104AF000F02D0F2EF4E3CF2EF4E0DF2EF02D0F2E4D
:104B0000F0E4AF2EF4E0BF2EF02DCE010196E5DEED
:104B1000BE01635F7F4F88E294E030DACE010196F8
:104B20004C010F2EF8E2EF2EF4E0FF2EF02D87015E
:104B3000F40161917191819191914F012DEC3CECC7
:104B40004CE45EE30E9437369B01AC01F8016081C2
:104B50007181828193810E943533F8016193719351
:104B6000819391938F01EC15FD0511F7CE010D9600
:104B70004C018501F70161917191819191917F01C2
:104B8000F40121913191419151914F010E943533AE
:104B900020E030E040E05FE30E9437362DEC3CEC53
:104BA0004CE45EE30E9437369B01AC01F801608162
:104BB0007181828193810E943533F80161937193F1
:104BC000819391938F01EC14FD04A1F67A947110F6
:104BD0009CCF68960FB6F894DEBF0FBECDBFDF91B5
:104BE000CF911F910F91FF90EF90DF90CF90BF90EA
:104BF000AF909F908F907F9008954F925F926F92A9
:104C00007F928F929F92AF92BF92CF92DF92EF925C
:104C1000FF920F931F93CF93DF93CDB7DEB72C97FF
:104C20000FB6F894DEBF0FBECDBF8C01209190046B
:104C300030919104409192045091930460919404B6
:104C40007091950480919604909197040E94EF349E
:104C500020E030EC48EA57E40E9419342BED3FE0A5
:104C600049EC50E40E94373621ED30EA46EB53E43C
:104C70000E9419344B015C010E94E63620E93EE2B5
:104C80004CEC5EE30E9437360E9499336B017C0145
:104C9000C501B4010E9416342B013C01C701B601C5
:104CA0000E9416344B015C019B01AC01C301B201AF
:104CB0000E9419340E9426332B013C0120E030E091
:104CC000A901C701B6010E942C36882354F4A30120
:104CD00092016BED7FE089EC90E40E9434332B016C
:104CE0003C01C301B2010E9416349B01AC01C50115
:104CF000B4010E94373669837A838B839C83C30116
:104D0000B2010E94E6369B01AC01C501B4010E94CC
:104D100037366D837E838F839887C701B6010E94E3
:104D2000E63669877A878B879C872DEC3CEC4CECC8
:104D30005DE3609124047091250480912604909194
:104D400027040E94353360932404709325048093D4
:104D50002604909327049801AE014F5F5F4F68E2ED
:104D600074E080E494E00E942E112C960FB6F89423
:104D7000DEBF0FBECDBFDF91CF911F910F91FF908E
:104D8000EF90DF90CF90BF90AF909F908F907F90EB
:104D90006F905F904F9008958F929F92AF92BF92C5
:104DA000EF92FF920F931F93CF93DF93CDB7DEB7B0
:104DB000E0970FB6F894DEBF0FBECDBF7C01209107
:104DC00088043091890440918A0450918B04609149
:104DD0008C0470918D0480918E0490918F040E94B8
:104DE000EF3420EC39E940EF5BE40E94193420E015
:104DF00030E04CEF54E40E9435334B015C01BE01BE
:104E00006F5F7F4F80E494E00E94A410BE01635F57
:104E10007F4FCE0101960E94E0116FE974E0CE0150
:104E20000D96ACD88E01075E1F4F28E0B501A40196
:104E3000CE010D960E941117AE014F5F5F4FBE016C
:104E4000635F7F4FC8010E946A13BE016B5D7F4F95
:104E5000CE0101960E9419109701AE014B5D5F4F84
:104E600068E274E080E494E00E942E11E0960FB6B0
:104E7000F894DEBF0FBECDBFDF91CF911F910F9190
:104E8000FF90EF90BF90AF909F908F900895EF921A
:104E9000FF921F93CF93DF93C9EED4E00F2EF1E082
:104EA000EF2EF5E0FF2EF02D10E0699179918991B8
:104EB000999127E231E348EC5EE30E9412348823A3
:104EC0000CF41F5FCE15DF0581F781E0163009F481
:104ED00080E0DF91CF911F91FF90EF9008952F9286
:104EE0003F924F925F926F927F928F929F92AF927A
:104EF000BF92CF92DF92EF92FF920F931F93CF93C7
:104F0000DF93CDB7DEB7CB57D1090FB6F894DEBF2C
:104F10000FBECDBFAF969FAF8EAFAF97E5967FAF79
:104F20006EAFE597E3965FAF4EAFE397790109EE79
:104F300014E00F2EF1E0CF2EF5E0DF2EF02DB12C96
:104F4000F80161917191819191918F0127E231E393
:104F500048EC5EE30E94123488230CF4B3940C15E1
:104F60001D0571F7F1E0E896FFAFE89726E0B21271
:104F700003C0E8961FAEE897E8968FADE8978823C0
:104F800009F411C3F701808181110FC080914C0495
:104F900090914D04029690934D0480934C048C3272
:104FA000914019F481E0F701808380911201811111
:104FB00013C3F701108210924D0410924C040CC3DD
:104FC00089869A86AB86BC8608C0F7FAF094F7F813
:104FD000F094C986DA86EB86FC868E010F5F1F4F40
:104FE0001E01FDE02F0E311CF801C080D180E2804F
:104FF000F38046015701E894B7F826E636E646E81E
:105000005FE3C501B4010E94343321EC3AEC41EC7A
:105010005FE30E9419340E94263320E030E044E32D
:1050200053E40E94373620ED3FE049E450E40E940B
:10503000193426E636E64EE151E40E94353323E387
:1050400033E343ED5FE30E94193420ED3FE049E490
:1050500050E40E94373620E030E044E353E40E94FD
:1050600019342B013C0120E030E0A901C701B60151
:105070000E9412348823C1F0C301B2010E94163489
:105080002B013C01A7019601C501B4010E9419340E
:105090009B01AC01C301B2010E943736F801608365
:1050A00071838283938309C0C301B2010E941634C5
:1050B000F80160837183828393830C5F1F4F021515
:1050C000130509F091CFCE01019651DA80910105C7
:1050D00090910205A0910305B09104058D8B9E8BE4
:1050E000AF8BB88F8091050590910605A0910705BB
:1050F000B0910805B058898B9A8BAB8BBC8B809193
:10510000090590910A05A0910B05B0910C058D87BA
:105110009E87AF87B88BAE01475E5F4FBE016F5F62
:105120007F4FCE010D9648D9CE01499620DAAE01C7
:105130004B5D5F4FE5966EAD7FADE597AF968EAD5B
:105140009FADAF9739D9CE01859611DABE016B5D5F
:105150007F4FCE0149965FD86B017C01AF966EAD53
:105160007FADAF97CE010D9656D84B015C01E59609
:105170006EAD7FADE597CE0101964DD82B013C0178
:1051800020E030E040E85FE3C701B6010E9435331C
:105190006B017C0126E636E646E65FE3C501B40115
:1051A0000E9437364B015C0120ED3CEC4CEC5DE39A
:1051B000C301B2010E9437369B01AC01C501B401A5
:1051C0000E9435339B01AC01C701B6010E943736FE
:1051D0004B015C01AE01475B5F4FAF966EAD7FAD9B
:1051E000AF97CE010D96E8D8AE014B5A5F4FE596CA
:1051F0006EAD7FADE597CE010196DED8CE01875B1F
:105200009F4F7C018E010B5A1F4F68019CE0C90E15
:10521000D11CF70161917191819191917F0126E6F5
:1052200036E646E65FE30E9437362B013C0120ED6F
:105230003CEC4CEC5DE3F8016081718182819381EB
:105240000E9437369B01AC01C301B2010E94353385
:10525000F80161937193819391938F01EC15FD0592
:10526000C1F6AE014F5C5F4FBE016B5D7F4FCE015B
:105270004996A2D8BE016B5A7F4FCE01C1960E94BB
:105280000B21A50194010E9435336B017C01AE0115
:10529000435C5F4FBE016B5D7F4FCE0149960E941C
:1052A0004F21BE016B5A7F4FCE01CD960E940B213C
:1052B000E1966CAF7DAF8EAF9FAFE197A7019601EE
:1052C000C701B6010E9437364B015C01E1962CAD57
:1052D0003DAD4EAD5FADE197CA01B9010E943736D1
:1052E0002B013C01A3019201C501B4010E94353399
:1052F0000E94F0364B015C0120E030E0A901C701BB
:10530000B6010E942C3618160CF090C0A701960129
:10531000C501B4010E943533E7966CAF7DAF8EAF07
:105320009FAFE797A50194010E9437364B015C01BE
:10533000BE016B5D7F4FCE0149960E940B212B0170
:105340003C0120E030E040E85FE3C301B2010E948D
:1053500035339B01AC01C501B4010E9437360E9470
:10536000F0369B01AC010E9435339B01AC0160E03B
:1053700070E080E89FE30E941934EC966CAF7DAF3B
:105380008EAF9FAFEC978E010F5C1F4F1E01FDE3A8
:105390002F0E311C6E0121E6C20ED11C7101F801E5
:1053A00021913191419151918F01F10141905190A1
:1053B000619071901F01E7966CAD7DAD8EAD9FAD94
:1053C000E7970E9437364B015C01E1962CAD3DAD6D
:1053D0004EAD5FADE197C301B2010E9437369B012C
:1053E000AC01C501B4010E943533F601619371939C
:1053F000819391936F010E151F0589F6BE016B5DB8
:105400007F4FCE0149960E940B2120E030E040E81A
:105410005FE30E9435339B01AC01E7966CAD7DAD37
:105420008EAD9FADE7970E9437368DC0A7019601DC
:10543000C501B4010E943433E7966CAF7DAF8EAFE7
:105440009FAFE797A50194010E9437366B017C015D
:10545000BE016B5D7F4FCE0149960E940B214B012F
:105460005C0120E030E040E85FE3C501B4010E9448
:1054700035339B01AC01C701B6010E9437360E944B
:10548000F0369B01AC010E9435339B01AC0160E01A
:1054900070E080E89FE30E941934EC966CAF7DAF1A
:1054A0008EAF9FAFEC978E010F5C1F4F1E01FDE387
:1054B0002F0E311C2E0121E6420E511C3101F80144
:1054C00061917191819191918F01F1018190919000
:1054D000A190B1901F01E1962CAD3DAD4EAD5FADF9
:1054E000E1970E9437366B017C01A5019401E79694
:1054F0006CAD7DAD8EAD9FADE7970E9437369B01B9
:10550000AC01C701B6010E943533F201619371937A
:10551000819391932F010615170589F6BE016B5DE6
:105520007F4FCE0149960E940B2120E030E040E8F9
:105530005FE30E943533E1962CAD3DAD4EAD5FADDE
:10554000E1970E943736A5960CAD1DAD2EAD3FAD4F
:10555000A597E396EEADFFADE39700831183228319
:105560003383A9960CAD1DAD2EAD3FADA997048335
:10557000158326833783AD960CAD1DAD2EAD3FADA3
:10558000AD97008711872287338764877587868761
:105590009787EC964CAD5DAD6EAD7FADEC97CF01CE
:1055A0000E9491227DC0E396EEADFFADE39710829D
:1055B000118212821382148215821682178210863B
:1055C00011861286138680E090E0A0E8BFE384870E
:1055D0009587A687B78764C08090E9049090EA0415
:1055E000A090EB04B090EC04C090ED04D090EE04D9
:1055F000E090EF04F090F004A7019601C501B4011A
:105600000E942C3618164CF0F7FAF094F7F8F09444
:10561000C982DA82EB82FC8204C089829A82AB82E0
:10562000BC828090F1049090F204A090F304B090BA
:10563000F404C090F504D090F604E090F704F090E4
:10564000F804A7019601C501B4010E942C36181672
:105650004CF0F7FAF094F7F8F094CD82DE82EF8206
:10566000F88604C08D829E82AF82B8868090F9044D
:105670009090FA04A090FB04B090FC04C090FD044C
:10568000D090FE04E090FF04F0900005A701960181
:10569000C501B4010E942C3618160CF491CC95CC9F
:1056A000E896FFADE897F09312018F2FC558DF4FB2
:1056B0000FB6F894DEBF0FBECDBFDF91CF911F9123
:1056C0000F91FF90EF90DF90CF90BF90AF909F90A1
:1056D0008F907F906F905F904F903F902F900895A4
:1056E0002F923F924F925F926F927F928F929F92F2
:1056F000AF92BF92CF92DF92EF92FF920F931F93E0
:10570000CF93DF93CDB7DEB7C65CD1090FB6F8945F
:10571000DEBF0FBECDBFCD53DF4F8883C35CD0400B
:10572000CC53DF4F9883C45CD040CB53DF4F6883AA
:10573000C55CD040CA53DF4F7883C65CD040282E6A
:10574000392E0AE514E0CE0101967C01DE01519666
:10575000CB54DF4FB983A883C55BD0400F2EFAE648
:10576000CF2EF4E0DF2EF02DCF54DF4FB983A88386
:10577000C15BD040C754DF4F99838883C95BD04059
:10578000F10181909190A190B1901F01D8014D90AD
:105790005D906D907D908D01A3019201C501B401D2
:1057A00063D720E030E040E05FE30E943736F70146
:1057B00061937193819391937F01A3019201C5013C
:1057C000B40153D720E030E040E05FE30E94373679
:1057D000CF54DF4FA881B981C15BD0406D937D93D9
:1057E0008D939D93CF54DF4FB983A883C15BD04085
:1057F0000C151D0529F6C754DF4FE880F980C95BF9
:10580000D040DE019D968E010F5D1F4FCE010D969B
:10581000BD019801F701CB54DF4F48815981C55B29
:10582000D040C190D190E190F190DB01CD92DD921A
:10583000ED92FD92BD01DA01CD90DD90ED90FD90ED
:10584000AD01D901CD92DD92ED92FD929D01E81757
:10585000F90739F78D8D9E8DAF8DB8A1C754DF4FF5
:1058600088839983AA83BB83C95BD040AD961CAE65
:105870001DAE1EAE1FAEAD97C9A4DAA4EBA4FCA466
:1058800020E030E040E050ECC701B6010E9437361E
:10589000E1966CAF7DAF8EAF9FAFE1978DA09EA0DC
:1058A000AFA0B8A4A5019401C501B401DED6E59668
:1058B0006CAF7DAF8EAF9FAFE597A7019601C70193
:1058C000B601D3D6E9966CAF7DAF8EAF9FAFE997A7
:1058D000ED961CAE1DAE1EAE1FAEED97C9A0DAA0B0
:1058E000EBA0FCA020E030E040E050ECC701B601A6
:1058F0000E943736C358DF4F688379838A839B833E
:10590000CD57D04020E030E040E050ECC501B4017C
:105910000E943736CF57DF4F688379838A839B8312
:10592000C158D040A7019601C701B6019ED6CB57FA
:10593000DF4F688379838A839B83C558D040C757DC
:10594000DF4F188219821A821B82C958D040C7546F
:10595000DF4F288139814A815B81C95BD040CA0110
:10596000B90183D6C357DF4F688379838A839B83CA
:10597000CD58D040CF56DF4F188219821A821B8231
:10598000C159D040CB56DF4F188219821A821B8230
:10599000C559D040C756DF4F188219821A821B8220
:1059A000C959D040C356DF4F688379838A839B836C
:1059B000CD59D040CF55DF4F188219821A821B82F1
:1059C000C15AD040CB55DF4F188219821A821B82F0
:1059D000C55AD040C755DF4F188219821A821B82E0
:1059E000C95AD040C355DF4F688379838A839B832C
:1059F000CD5AD0403E0195E4690E711CC354DF4F6F
:105A000019830883CD5BD040812C912C5E01ADE2DF
:105A1000AA0EB11CCF53DF4F0883C15CD040CE53D8
:105A2000DF4F1883C25CD04059C0F1016191719180
:105A3000819191911F01D6012D913D914D915D91E3
:105A40006D01F20161907190819091902F010CD6BF
:105A5000CF54DF4F688379838A839B83C15BD040B7
:105A6000A4019301CB54DF4F688179818A819B81A6
:105A7000C55BD0400E943736C754DF4F288139813B
:105A80004A815B81C95BD040D4D69B01AC01CF5425
:105A9000DF4F688179818A819B81C15BD040E5D5E8
:105AA000D8016D937D938D939C931397045F1F4F43
:105AB0004A145B0409F0B9CF4701C154DF4F688035
:105AC0007980CF5BD040BCE08B0E911CE4E06E0E81
:105AD000711CF4E28F16910409F440C0C354DF4FE7
