S00B000078797A2E73726563AE
S1130000E5C3000002C4000000C40000FEC30000F9
S1130010FCC30000FAC30000F8C30000F6C30000EC
S1130020F4C30000F2C30000F0C30000EEC30000FC
S1130030ECC30000EAC300000C94012DE6C30000E9
S1130040E4C30000E2C300000C948A12DEC3000083
S1130050DCC30000DAC30000D8C30000D6C300002C
S1130060D4C30000D2C30000D0C30000CEC300003C
S1130070CCC30000CAC300000C94ED1CC6C300002E
S1130080C4C30000C2C30000C0C300002E0C370C60
S1130090400C490C520C5B0C640C6D0C760C7F0C00
S11300A0880C036EDB363D9A9999993DABAAAA2A2E
S11300B03E000000803F084AD73B3BCE016E84BC23
S11300C0BFFDC12F3D6C74319ABD56833DDA3D00AE
S11300D0C77F11BED9E4BB4C3E916BAAAABE0000F7
S11300E000803F072C7AA5BA6CC590DA3B9365FC77
S11300F08BBC53F810FD3C5692834DBD879D3AB698
S11301003DCBC9BF5BBE73DA0FC93F05A84CCDB266
S1130110D44EB93836A9020C50B9918688083CA649
S1130120AAAA2ABE000000803F07634236B79BD8C4
S1130130A71A39685618AEBAAB558C1D3CB7CC57C4
S113014063BD6DEDFD753EF6177231BF0000008092
S11301503F08000000BE922449123EABAAAA2ABE60
S1130160CDCCCC4C3E00000080BEABAAAAAA3E0077
S1130170000000BF000000803F00000000000841B4
S113018078D3BB4387D1133D190E3CC3BD4282AD26
S11301902B3E68EC8276BED98FE1A93E4C80EFFFFE
S11301A0BE01C4FF7F3F000000000000000000000B
S11301B0CDCC2441CDCC9041CDCCD4C133330BC173
S11301C0333353C03333DBC1666606409A9961C149
S11301D09A9959400000B0C033330341333333BFDD
S11301E0CDCCCCBE9A9921C16666E63F333333BF8A
S11301F0CDCC4C3E6666A6BF9A9911C19A99A94086
S1130200333383409A9939409A9989C06666A6C067
S1130210CDCC4CBE0000003F9A99193F6666A6BF3C
S11302209A99D93FCDCCCCBD9A9999BF3333B33F7A
S11302309A9959409A997940000000009A9999BE78
S1130240CDCCCCBD00000000333333BF666606C09E
S113025066660640333333BF9A9999BFCDCC4C3E82
S11302609A99993E6666663FCDCCCC3F0000803FAC
S11302709A99993ECDCC4CBECDCC4C3F000000BFEA
S1130280CDCCCC3E6666A63FCDCC4CBECDCCCC3DD1
S11302909A9999BE9A9919BF9A9919BFCDCC4CBF16
S11302A0CDCCCC3DCDCC4C3ECDCC4CBECDCC4C3EBF
S11302B0000000009A9999BE9A9919BF9A99993E9B
S11302C00000003FCDCCCC3DCDCC4CBE0000003F67
S11302D0CDCCCC3ECDCC4CBECDCCCC3D9A9999BEA8
S11302E0CDCCCCBE9A99993E9A99993E00000000D3
S11302F000000000000000000000000000000000FA
S113030000000000000000000000000000000000E9
S113031000000000000000000000000000000000D9
S113032000000000000000000000000000000000C9
S113033000000000000000000000000000000000B9
S113034000000000000000000000000000000000A9
S11303500000000000000000000000000000000099
S11303600000000000000000000000000000000089
S11303700000000000000000000000000000000079
S11303800000000000000000000000000000000069
S11303900000000000000000000000000000000059
S11303A00000000000000000000000000000000049
S11303B00000000000000000000000000000000039
S11303C00000000000000000000000000000000029
S11303D00000000000000000000000000000000019
S11303E00000000000000000000000000000000009
S11303F000000000000000000000000000000000F9
S113040000000000000000000000000000000000E8
S113041000000000000000000000000000000000D8
S113042000000000000000000000000000000000C8
S113043000000000000000000000000000000000B8
S113044000000000000000000000000000000000A8
S11304500000000000000000000000000000000098
S11304600000000000000000000000000000000088
S11304700000000000000000000000000000000078
S11304800000000000000000000000000000000068
S11304900000000000000000000000000000000058
S11304A00000000000000000000000000000000048
S11304B00000000000000000000000000000000038
S11304C00004E6C600A0BBC4CDE895459AD118C582
S11304D0664E3C459AD931C56696D1449A7920C472
S11304E066D6A844CD0413C59A99E6C23333994419
S11304F066E67443008011449A9906C466E6624431
S1130500CD6C4B4466A68D43CDCCF04233B33CC393
S11305103373A7C366E63443CDCC8C4200C0A4C376
S11305209A9968C3CD0CB44333333D426666404365
S11305300000454366E60CC39A99EEC200801DC3D1
S113054000008041333383406666C84200008C4219
S1130550666687426666A6C166669142CDCC044251
S113056066E601C39A996B423333E7C1666685C276
S1130570333353419A99E940CDCC8DC266667A42B1
S11305803333A342333398C2666658C29A99D9C0AA
S113059000009CC133334F426666B6400000704190
S11305A03333C341666616419A995940333333C095
S11305B03333DBC19A99D940CDCC0CC09A99C1414F
S11305C0CDCC0C419A992141333387C1666692C1DF
S11305D0CDCC4CC0CDCC5441CDCCA4C19A9969C1E9
S11305E0666656419A99814133333B416666B6400B
S11305F066667EC19A9911C1000000C06666064015
S1130600CDCCAC40CDCC0C41CDCCACC16666464023
S1130610CDCC2C41333353C0CDCC3C413333333F69
S11306209A99D9C0CDCC54C1CDCCDCC0CDCCCCBDF5
S11306309A99F94033330B410000803F9A9911C1D4
S1130640000080C0000028C1666606413333F3BF52
S11306509A99C9C0CDCC4C40CDCCCC3DCDCCCCBEF0
S11306600000003F33339340000000BFCDCC8C40EA
S11306706666E63FCDCCFCC0333333BF9A9919BFCD
S113068066660640666686C09A991940333333C05D
S11306906666E6BF9A9999BF666666C033330BC136
S11306A0666646400000C0BFCDCCCCBD333313C01A
S11306B00000004000000040333333BFCDCC4CBFBA
S11306C0CDCC8CBF9A99193FCDCC4C3F333333BF3B
S11306D0CDCC4CBECDCC4C3ECDCC0CC09A99D93FA0
S11306E03333B3BFCDCC4CBE000020C0CDCCCC3E08
S11306F0000000C0000060409A9919C03333F3BF72
S1130700CDCC4CBECDCC8CBFCDCCCC3ECDCCCC3E18
S11307109A99993F3333F33FCDCC4CBFCDCC0CC029
S11307206666663F9A99993ECDCCCC3D3333333FD0
S11307300000003FCDCCCCBD9A9999BE9A99993EC0
S1130740CDCCCCBECDCC4C3ECDCC4C3E666666BF4B
S1130750666666BFCDCCCCBD000000003333333FAA
S113076000000000666666BF666666BFCDCCCC3E00
S1130770CDCCCC3E0000003FCDCCCC3F000000BF30
S1130780000000BF0000803F9A9999BFCDCC4CBEB9
S1130790CDCCCCBDCDCC4C3FCDCCCC3ECDCCCCBD4A
S11307A0CDCCCCBD9A99993ECDCCCC3ECDCCCC3DD4
S11307B00000003F0000003F9A9999BECDCCCCBE0A
S11307C0CDCCCCBE9A9999BECDCC4CBF11241FBEC2
S11307D0CFEFD0E1DEBFCDBF11E0A0E0B1E0E0E5B6
S11307E0FDE600E00BBF02C007900D92A239B107ED
S11307F0D9F725E0A2E9B1E001C01D92AE32B207FB
S1130800E1F70E942E2D0C94A636FACB2F923F923C
S11308104F925F926F927F928F929F92AF92BF920C
S1130820CF92DF92EF92FF920F931F93CF93DF93B8
S1130830CDB7DEB76A970FB6F894DEBF0FBECDBF53
S11308409A8F898F8091010590910205A0910305EB
S1130850B0910405EBEEF1E080879187A287B3871E
S11308608091050590910605A0910705B0910805B2
S1130870B05884839583A683B783809109059091AA
S11308800A05A0910B05B0910C0580839183A28386
S1130890B38380910C01882341F062E971E0CF01B8
S11308A00E94BF1D10920C0181C00BEE11E00F2EAF
S11308B0F2E98F2EF1E09F2EF02D5E018DE0A80E5F
S11308C0B11CFE0131961F01F801C190D190E19055
S11308D0F1908F01F40141905190619071904F011A
S11308E0A3019201C701B6010E94363120E030E035
S11308F040E05FE30E943934F50161937193819381
S113090091935F01A3019201C701B6010E9437319F
S113091020E030E040E05FE30E943934F10161936C
S11309207193819391931F01F1E0073F1F0761F6D3
S1130930CE0101960E94EF1D9B01AC0160E070E0C6
S113094080E89FEB0E941B326B017C019B01AC0190
S11309506D857E858F8598890E943934E98DFA8D5D
S11309606083718382839383A701960169897A895D
S11309708B899C890E943934E98DFA8D648375834F
S113098086839783A70196016D897E898F89988DC7
S11309900E943934E98DFA8D608771878287938745
S11309A062E971E08BEE91E00E94BF1D6A960FB67A
S11309B0F894DEBF0FBECDBFDF91CF911F910F9191
S11309C0FF90EF90DF90CF90BF90AF909F908F906B
S11309D07F906F905F904F903F902F9008952F924B
S11309E03F924F925F926F927F928F929F92AF92BB
S11309F0BF92CF92DF92EF92FF920F931F93CF9308
S1130A00DF93CDB7DEB7E9970FB6F894DEBF0FBE1C
S1130A10CDBF9DAB8CAB60910105709102058091B7
S1130A200305909104050BEE11E020E030E44CE165
S1130A3056E40E941B32F80160877187828793878E
S1130A406091050570910605809107059091080550
S1130A5020E030E44CE156E40E941B32DC01CB017F
S1130A60B058F80184839583A683B7836091090500
S1130A7070910A0580910B0590910C0520E030E4FB
S1130A804CE156E40E941B32F80160837183828337
S1130A909383C8010E94EF1D6F87788B898B9A8B93
S1130AA0409080045090810460908204709083048C
S1130AB00F2EF4E7EF2EF4E0FF2EF02DCE01019679
S1130AC04C010F2EF3ED2F2EF1E03F2EF02D0F2EC3
S1130AD0F0E8AF2EF4E0BF2EF02D81016C01F70198
S1130AE061917191819191917F019B01AC010E946F
S1130AF03731A30192010E943934F6016193719355
S1130B00819391936F019B01AC010E9437319B014A
S1130B10AC01F80160817181828193810E94373137
S1130B20F80161937193819391938F01EA14FB040B
S1130B30B1F62F85388949895A89CA01B9010E94B9
S1130B4039346CA77DA78EA79FA78EE991E09FA358
S1130B508EA3C12CD12CFE013D96FE87ED8728AAD9
S1130B6039AA8AAA9BAA8601CEA0DFA0D9A6C8A6C4
S1130B70C80182599E4F9D8B8C8BF801E65BFE4F1A
S1130B80FF8BEE8B8FED91E0998F888FF801EA5DF2
S1130B90FE4FFB8FEA8FC8A8D9A8EAA8FBA81F8636
S1130BA01B8A312C212C1BA70AA78701DD8ECC8E32
S1130BB0F80161917191819191918F01EC89FD8985
S1130BC02191319141915191FD8BEC8BEC8DFD8DF7
S1130BD081909190A190B190FD8FEC8FEE89FF8967
S1130BE04190519061907190FF8BEE8BE88DF98D5F
S1130BF0C190D190E190F190F98FE88FCEAADFAA4D
S1130C00E8AEF9AEEA8DFB8DC190D190E190F19000
S1130C10FB8FEA8FCE8EDF8EE8A2F9A20E943934D0
S1130C206B017C01A3019201C501B4010E94393416
S1130C309B01AC01C701B6010E9437314B015C0135
S1130C402E8D3F8D48A159A16EA97FA988AD99AD7C
S1130C500E9439349B01AC01C501B4010E943731B3
S1130C609B01AC016F857B89832D922D0E943731C6
S1130C706F877B8B382E292ECD84DE840C151D05C1
S1130C8009F096CF0AA51BA52CA53DA54EA55FA5E9
S1130C90922D0E941B32E8A5F9A56083718382839B
S1130CA093838EA19FA104969FA38EA3045F1F4FDD
S1130CB00432110509F058CF4CA95DA96BEE71E01F
S1130CC08EE991E00E94DD1F6091D20170E080E026
S1130CD090E00E94B432AB01BC018CA99DA90E9492
S1130CE05E20E9960FB6F894DEBF0FBECDBFDF914C
S1130CF0CF911F910F91FF90EF90DF90CF90BF9015
S1130D00AF909F908F907F906F905F904F903F90A7
S1130D102F9008952F923F924F925F926F927F92FD
S1130D208F929F92AF92BF92CF92DF92EF92FF92F7
S1130D300F931F93CF93DF934C01EC015C018CE084
S1130D40A80EB11C8401D8014D905D906D907C90EB
S1130D5073016201E894F7F823E333E343E75FE3C5
S1130D60C701B6010E942E3418160CF5A301920196
S1130D70C701B6010E941B3220E030E040E85FEB7F
S1130D800E94143281110AC083E393E3A3E7BFEB0B
S1130D90F80180839183A283B38309C083E393E33F
S1130DA0A3E7BFE3F80180839183A283B3830C5F3D
S1130DB01F4F0A151B0539F645ED5FE061EC7EE334
S1130DC0C4010E945E20488059806A807B80730140
S1130DD06201E894F7F828EA36EC4BE85EE3C701D1
S1130DE0B6010E942E341816FCF4A3019201C70127
S1130DF0B6010E941B3220E030E040E85FEB0E9425
S1130E001432811109C088EA96ECABE8BEEB888302
S1130E109983AA83BB8308C088EA96ECABE8BEE357
S1130E2088839983AA83BB832496AC16BD0659F69E
S1130E30D401CD90DD90ED90FC9020E030E0A9014C
S1130E40C701B6010E942E341816C4F420E03FEF07
S1130E504FE757E4C701B6010E94393428EA36EC5B
S1130E604BE85EE30E941B329F770E9488327093A6
S1130E7015056093140510921A051EC028EA36EC75
S1130E804BE85EE3C701B6010E941B3220E030E06C
S1130E9040E85FE30E94373120E03FEF4FE757E43B
S1130EA00E9439349F770E948832709315056093AD
S1130EB0140581E080931A05F401C480D580E6808E
S1130EC0F78020E030E0A901C701B6010E942E346A
S1130ED01816C4F420E03FEF4FE757E4C701B6010A
S1130EE00E94393428EA36EC4BE85EE30E941B3258
S1130EF09F770E94883270931705609316051092AD
S1130F001B051EC028EA36EC4BE85EE3C701B601B8
S1130F100E941B3220E030E040E85FE30E9437315A
S1130F2020E03FEF4FE757E40E9439349F770E9457
S1130F308832709317056093160581E080931B0532
S1130F40D4011896CD90DD90ED90FC901B9720E095
S1130F5030E0A901C701B6010E942E341816C4F46A
S1130F6020E03FEF4FE757E4C701B6010E94393450
S1130F7028EA36EC4BE85EE30E941B329F770E941E
S1130F808832709319056093180510921C051EC0D1
S1130F9028EA36EC4BE85EE3C701B6010E941B3237
S1130FA020E030E040E85FE30E94373120E03FEF8B
S1130FB04FE757E40E9439349F770E948832709338
S1130FC019056093180581E080931C050E94DC2CB0
S1130FD080911A0590E00E94ED2CC4E1D5E088814F
S1130FE09981082E000C990B0E94ED2C888199811F
S1130FF0892F990F990B0E94ED2C80911B0590E08D
S11310000E94ED2CC6E1D5E088819981082E000C60
S1131010990B0E94ED2C88819981892F990F990B46
S11310200E94ED2C80911C0590E00E94ED2CC8E1FB
S1131030D5E088819981082E000C990B0E94ED2C33
S113104088819981892F990F990B0E94ED2C80EA50
S11310508BBBDF91CF911F910F91FF90EF90DF90A9
S1131060CF90BF90AF909F908F907F906F905F9044
S11310704F903F902F9008956F927F928F929F92FE
S1131080AF92BF92CF92DF92EF92FF920F931F9392
S1131090CF93DF93CDB7DEB7E0970FB6F894DEBFFA
S11310A00FBECDBF0E9476218FEC97E00197F1F738
S11310B000C000000E9419210E94DC2C80912401B0
S11310C0843041F4CE01019625DE84E090E00E9454
S11310D0ED2C09C0813039F4CE010D961BDE8EE073
S11310E090E00E94ED2C0E9445218FE19EE401973F
S11310F0F1F700C00000CE01019688DB8091010564
S113110090910205A0910305B0910405EBEEF1E086
S113111080879187A287B387809105059091060502
S1131120A0910705B0910805B05884839583A683E0
S1131130B7838091090590910A05A0910B05B091A0
S11311400C0580839183A283B3838091AE01909137
S1131150AF010297C9F49FE7E8E311E09150E04042
S11311601040E1F700C000000E94DC2C8AE590E00A
S11311700E94ED2C0E941421EBEAF4E0808D882378
S1131180E9F38091C3040FC02FE788E391E0215075
S113119080409040E1F700C000000E94DC2C8BE509
S11311A090E00E94ED2C80912501813019F40E9479
S11311B08A2161C02091900430919104409192045D
S11311C050919304609194047091950480919604D5
S11311D090919704A2E00E94743620939004309377
S11311E091044093920450939304609394047093F5
S11311F095048093960490939704209188043091E9
S1131200890440918A0450918B0460918C047091FC
S11312108D0480918E0490918F040E9474362093E3
S113122088043093890440938A0450938B04609318
S11312308C0470938D0480938E0490938F04EBEA56
S1131240F4E087A18E5F87A387A18B3320F017A2D8
S113125086A18F5F86A38091D1048C3330F0EBEAB2
S1131260F4E016A285A18F5F85A38091D004883114
S113127010F01092D004EFE718E321E0E1501040A1
S11312802040E1F700C0000084E690E00E94ED2CCD
S11312900E9416210E9448258093D2018091250145
S11312A08F3F09F443C00E946123CE0149960E94F6
S11312B0FE23CE0185960E94CD2421ED31E044E742
S11312C054E0BE01675E7F4FCE0185960E94702573
S11312D08093D2016FED71E084E794E00E9471295C
S11312E08091D2016091D101869FB0011124072E13
S11312F0000C880B990B0E94B632AB01BC018FED38
S113130091E00E945E208FED91E00E94EF1D6093BA
S1131310840470938504809386049093870484E7FF
S113132094E00E94ED20CE010D9659DB8091C4011A
S11313308837DCF420911F05309120054091210568
S11313405091220560912305709124058091250513
S1131350909126052032314A4740510561057105B7
S11313608105910509F008F46BC01092B201109246
S1131370B3011092B4011092B50189E78093C401BE
S11313808091D201813021F58091AA019091AB0125
S113139002969093AB018093AA011092AD01109232
S11313A0AC0160ED72E00E9427369093C3018093F4
S11313B0C201883592402CF41092AF011092AE0114
S11313C02CC182E090E09093AF018093AE0125C1DF
S11313D01092C3011092C2016091AC017091AD01F1
S11313E06E5F7F4F7093AD016093AC01072E000CCC
S11313F0880B990B0E94B6326B017C0120E030E02F
S113140046E153E460910401709105018091060165
S1131410909107010E9436319B01AC01C701B601CE
S11314200E942E3418163CF482E090E09093AF01B1
S11314308093AE01F2C01092AF011092AE01EDC0E4
S1131440CE0101960E94EF1D6B017C016093BE01E9
S11314507093BF018093C0019093C1018091D20128
S1131460682F70E080E090E00E94B6329B01AC01EE
S1131470C701B6010E9439346B017C016093BA0143
S11314807093BB018093BC019093BD0120E030E0D8
S1131490A9010E941432882309F462C080900801D3
S11314A09090090122E082169104A9F4A701960103
S11314B0C701B6010E94373120E030E040E05FE32D
S11314C00E9439346093B2017093B3018093B401E4
S11314D09093B5012CC0B4016150710980E090E093
S11314E00E94B4322091B6013091B7014091B80105
S11314F05091B9010E9439349B01AC01C701B60176
S11315000E9437316B017C01B40180E090E00E94BD
S1131510B4329B01AC01C701B6010E941B32609337
S1131520B2017093B3018093B4019093B5018FEF2E
S1131530881A980A9092090180920801C090B20119
S1131540D090B301E090B401F090B50120E030E018
S1131550A901C701B6010E941432811110C01AC03A
S113156082E090E090930901809308011092B20107
S11315701092B3011092B4011092B5010BC02AE08D
S113158037ED43E25DE3C701B6010E9414328823BC
S113159084F019C020E030E0A9016091B601709197
S11315A0B7018091B8019091B9010E941432882347
S11315B051F08091B0019091B10102969093B101E4
S11315C08093B00104C01092B1011092B0016091F7
S11315D0B0017091B10180E090E00E94B43220919A
S11315E000013091010140910201509103010E94D8
S11315F02E34181664F482E090E09093AF01809347
S1131600AE018091C4018E5F8093C40106C0109224
S1131610AF011092AE011092C4018091B201909179
S1131620B301A091B401B091B5018093B601909338
S1131630B701A093B801B093B901C0908404D090CD
S11316408504E0908604F09087042FE632E143E8B5
S11316505BE3C701B6010E9414328823BCF4809175
S1131660D2019091D101899FC0011124019771F495
S11316708091CF019091D00101969093D0018093F5
S1131680CF011092CE011092CD0117C02FE632E1A6
S113169043E05CE3C701B6010E942E3418166CF4D3
S11316A08091CD019091CE0101969093CE018093CB
S11316B0CD011092D0011092CF0160901F0570905F
S11316C020058090210590902205B0912305A091DA
S11316D02405F0912505E0912605262D372D482D6A
S11316E0592D6B2F7A2F8F2F9E2F233F3140410589
S11316F05105610571058105910509F0A0F484E0A7
S1131700809324011092C5011092C6011092C70162
S11317101092C8011092C9011092CA011092CB0113
S11317201092CC0177C08091C40118165CF58091A9
S11317302401843039F52091CF013091D00180917A
S11317400A0190910B0182179307C4F481E08093FE
S113175024016092C5017092C6018092C7019092E3
S1131760C801B093C901A093CA01F093CB01E093DF
S1131770CC011092D0011092CF0104C01092CE017E
S11317801092CD0180912401813009F043C0209151
S1131790CD013091CE0180910A0190910B01821705
S11317A09307A4F52091C5013091C6014091C7016A
S11317B05091C8016091C9017091CA018091CB0117
S11317C09091CC01205F384D4F4F5F4F6F4F7F4F4B
S11317D08F4F9F4FA22EB32EC42ED52EE62EF72E5A
S11317E0082F192F262D372D482D592D6B2F7A2F81
S11317F08F2F9E2F0E94893649F040F084E0809319
S113180024011092CE011092CD0104C01092D00197
S11318101092CF018091AE018093DA04E0960FB666
S1131820F894DEBF0FBECDBFDF91CF911F910F9112
S1131830FF90EF90DF90CF90BF90AF909F908F90EC
S11318407F906F90089590E0FC013297EB30F105A2
S113185008F067C0EA5BFF4F0C943A362FE130E0A2
S113186040E050E060E070E080E090E008952BE319
S113187030E040E050E060E070E080E090E0089507
S11318802AE530E040E050E060E070E080E090E085
S1131890089528E730E040E050E060E070E080E048
S11318A090E0089527E930E040E050E060E070E027
S11318B080E090E0089525EB30E040E050E060E007
S11318C070E080E090E0089524ED30E040E050E0E6
S11318D060E070E080E090E0089523EF30E040E0C5
S11318E050E060E070E080E090E0089521E131E0B4
S11318F040E050E060E070E080E090E0089520E394
S113190031E040E050E060E070E080E090E0089575
S11319102EE431E040E050E060E070E080E090E0F0
S1131920089520E030E040E050E060E070E080E0C6
S113193090E008952F923F924F925F926F927F9220
S11319408F929F92AF92BF92CF92DF92EF92FF92CB
S11319500F931F93CF93DF93CDB7DEB765970FB681
S1131960F894DEBF0FBECDBF2C01862F4987622EAF
S1131970A02E69DF2A873B874C875D876E877F8728
S1131980888B998B2E2D30E040E050E060E070E0D1
S113199080E090E020583C4544495B4C6E4071091E
S11319A081099109822E932E342E752EB62FA72FDE
S11319B0F82FE92F202F30E040E050E060E070E0A5
S11319C080E090E004E00E945236B12CC12CD12C6E
S11319D0E12CF12C00E010E00E94803602E00E942D
S11319E05236A22EB32EC42ED52EE62EF72E082F55
S11319F0192F282D392D432D572D6B2F7A2F8F2FEB
S1131A009E2F0E946B36722E832E942E252E362EF8
S1131A10B72FA82FF92F262D30E040E050E060E0EA
S1131A2070E080E090E004E00E945236A62CB12CD5
S1131A30C12CD12CE12CF12C00E010E00E94803666
S1131A40A22EB32EC42ED52EE62EF72EE82F192F54
S1131A5004E00E9452360E2F0E94803604E00E9459
S1131A605236A22EB32EC42ED52EE62EF72E082FD4
S1131A70192F272D382D492D522D632D7B2F8A2F79
S1131A809F2F0E946B36222E332E4A8B5B8B662E41
S1131A90772E8C8B9D8B920149823A8340E050E0F3
S1131AA060E070E080E090E003E00E945236822E15
S1131AB0932E442E552EB62FA72FF82FE92F0E94D0
S1131AC05236A22EB32EC42ED52EE62EF72E082F74
S1131AD0192F282D392D442D552D6B2F7A2F8F2F0B
S1131AE09E2F0E946B36A980BA80C12CD12CE12C88
S1131AF0F12C00E010E00E946B36A22EB32EC42E0F
S1131B00D52EE62EF72EE82F192F04E00E94523628
S1131B100E2F0E948036A22EB32EC42ED52EE62E72
S1131B20F72EE82F192F04E00E9452360E2F0E9440
S1131B308036A22EB32EC42ED52EE62EF72EE82FF5
S1131B40192F04E00E9452360E2F0E94803607E0BF
S1131B500E945236A22EB32EC42ED52EE62EF72E78
S1131B60082F192F222D332D4A895B89662D772D55
S1131B708C899D890E946B36722E832E942EB52FEC
S1131B80662E572EF82FE92F298530E040E050E0EB
S1131B9060E070E080E090E0AFEF0E947436AA84C9
S1131BA0BB84CC84DD84EE84FF84088919890E9477
S1131BB06B36A22EB32EC42ED52EE62EF72EA82FCA
S1131BC0192F02E00E9452360A2F0E948036A22E5C
S1131BD0B32EC42ED52EE62EF72EA82F192F04E0EF
S1131BE00E9452360A2F0E948036A22EB32EC42E93
S1131BF0D52EE62EF72EA82F192F04E00E94523678
S1131C000A2F0E94803607E00E945236A22EB32E7D
S1131C10C42ED52EE62EF72E082F192F272D382D5A
S1131C20492D5B2F662D752D8F2F9E2F0E946B36AD
S1131C3065960FB6F894DEBF0FBECDBFDF91CF918E
S1131C401F910F91FF90EF90DF90CF90BF90AF90D6
S1131C509F908F907F906F905F904F903F902F90C8
S1131C600895AF92BF92CF92DF92EF92FF920F93BB
S1131C701F93CF93DF93E12C0EE124E044E163E072
S1131C8080EE97E057DEA22EB32EC42ED52ED62F8B
S1131C90F72EC82F192FEBEAF4E082A593A5E7A04D
S1131CA006A125A140A561A545DE209388043093B3
S1131CB0890440938A0450938B0460938C0470933A
S1131CC08D0480938E0490938F04ED2E0C2F0E942C
S1131CD0803620939004309391044093920450935F
S1131CE09304609394047093950480939604909362
S1131CF09704DF91CF911F910F91FF90EF90DF90A8
S1131D00CF90BF90AF9008954F925F926F927F9261
S1131D108F929F92AF92BF92CF92DF92EF92FF92F7
S1131D200F931F93CF93DF93CDB7DEB7A4970FB66E
S1131D30F894DEBF0FBECDBF7C016B0120919004EF
S1131D4030919104409192045091930460919404D1
S1131D507091950480919604909197040E94F132B9
S1131D6027EB39E540E85FE30E9439342EEB37EF87
S1131D7048E958E30E9439342B013C010E9418328F
S1131D804B015C0169837A838B839C83C301B20119
S1131D900E94E8346D837E838F83988719861A8620
S1131DA01B861C868B019C0130580D871E872F874C
S1131DB0388B898A9A8AAB8ABC8A1D8A1E8A1F8AB2
S1131DC0188E198E1A8E1B8E1C8E1D8E1E8E1F8EC3
S1131DD018A280E090E0A0E8BFE389A39AA3ABA394
S1131DE0BCA3A601BE016F5F7F4FC7010E947F1F86
S1131DF0A4960FB6F894DEBF0FBECDBFDF91CF918E
S1131E001F910F91FF90EF90DF90CF90BF90AF9014
S1131E109F908F907F906F905F904F9008954F9216
S1131E205F926F927F92AF92BF92CF92DF92EF92C6
S1131E30FF920F931F93CF93DF93CDB7DEB7A49791
S1131E400FB6F894DEBF0FBECDBF8C015B012091AD
S1131E5090043091910440919204509193046091C4
S1131E6094047091950480919604909197040E9433
S1131E70F13227EB39E540E85FE30E9439342EEB79
S1131E8037EF48E958E30E9439342B013C010E94A2
S1131E9018326B017C0169837A838B839C83C30131
S1131EA0B2010E94E8342B013C0177FA709477F870
S1131EB070944D825E826F82788619861A861B869C
S1131EC01C866D877E878F87988BC98ADA8AEB8A0E
S1131ED0FC8A1D8A1E8A1F8A188E198E1A8E1B8EE2
S1131EE01C8E1D8E1E8E1F8E18A280E090E0A0E82E
S1131EF0BFE389A39AA3ABA3BCA3A501BE016F5FF3
S1131F007F4FC8010E947F1FA4960FB6F894DEBFCE
S1131F100FBECDBFDF91CF911F910F91FF90EF9036
S1131F20DF90CF90BF90AF907F906F905F904F9075
S1131F300895CF92DF92EF92FF920F931F93CF9366
S1131F40DF93CDB7DEB7C854D1090FB6F894DEBF1E
S1131F500FBECDBF8C01CB016A017901AE01435F95
S1131F605F4FB8010E94DD1FCE010D960E94B8207C
S1131F70F80180819181A281B381B058898F9A8FB1
S1131F80AB8FBC8F84819581A681B781B0588D8F2A
S1131F909E8FAF8FB8A30085118522853385305875
S1131FA009A31AA32BA33CA3CE0149960E94B820EF
S1131FB0AE014F5F5F4FBE01675E7F4FCE010D964E
S1131FC00E94DD1FCE0101960E94B82089819A816A
S1131FD0AB81BC818DA39EA3AFA3B8A78D859E853D
S1131FE0AF85B88989A79AA7ABA7BCA7898D9A8D15
S1131FF0AB8DBC8D8DA79EA7AFA7B8AB8D819E81FD
S1132000AF81B88589AB9AABABABBCAB89899A89F4
S1132010AB89BC898DAB9EABAFABB8AF8D8D9E8DBC
S1132020AF8DB8A189AF9AAFABAFBCAF89859A85A4
S1132030AB85BC8521968CAF9DAFAEAFBFAF21976A
S11320408D899E89AF89B88D25968CAF9DAFAEAF33
S1132050BFAF259789A19AA1ABA1BCA129968CAF4A
S11320609DAFAEAFBFAF2997A701BE016B5D7F4F98
S1132070C6010E947F1FC85BDF4F0FB6F894DEBF16
S11320800FBECDBFDF91CF911F910F91FF90EF90C5
S1132090DF90CF9008952F923F924F925F926F926C
S11320A07F928F929F92AF92BF92CF92DF92EF92E4
S11320B0FF920F931F93CF93DF93CDB7DEB72C9787
S11320C00FB6F894DEBF0FBECDBFFC011B018080AC
S11320D09180A280B380C480D580E680F78040845C
S11320E0518462847384A5019401C701B6010E94DE
S11320F0C13169877A878B879C87A5019401C501C3
S1132100B4010E94393469837A838B839C83A5014B
S11321109401C501B4010E9439344B015C01A7014B
S11321209601C701B6010E9439349B01AC01C50177
S1132130B4010E9437310E94F23469837A838B831D
S11321409C8325E434E24FE75FE30E9439349B012A
S1132150AC01C301B2010E94C1314B015C0115E025
S1132160C501B4010E94183220E030E040E450E49C
S11321700E949C346B017C01C501B4010E94E834C7
S113218020E030E040E450E40E949C344B015C01C8
S11321902EEA39EC46E257E4C701B6010E9439340D
S11321A09B01AC0169817A818B819C810E943631CB
S11321B06B017C0121E539E547E257E4C501B4012F
S11321C00E943934A30192010E943731A70196017C
S11321D00E94C1316B017C010E9418324B015C01E9
S11321E0C701B6010E94E83425E434E24FE75FE317
S11321F00E943934A50194010E94C1314B015C0154
S1132200115009F0ADCFC701B6010E94E8344B016B
S11322105C012AE83CE54BED5BE30E9439346D83B5
S11322207E838F839887A50194016D817E818F8140
S113223098850E9439349B01AC0160E070E080E82D
S11322409FE30E9436310E94F2349B01AC0162E3A9
S113225075EA82EC9AE40E941B326D837E838F833D
S11322609887C701B6010E941832F101C082D18259
S1132270E282F38229853A854B855C852483358304
S11322804683578329813A814B815C810E9439348A
S113229069837A838B839C832AE83CE54BED5BE37B
S11322A06D817E818F8198850E943934A5019401C6
S11322B00E943934A30192010E943731A50194018F
S11322C00E9439349B01AC0169817A818B819C81A4
S11322D00E9437312D813E814F8158850E943631CD
S11322E0F101608771878287938720E030E044E3BF
S11322F053E4C701B6010E94393428ED3FE049E4B4
S113230050E40E941B3220E030E048EC52E40E948A
S113231039340E9483320BEA14E0F801618F728F22
S1132320838F948F20E030E044E353E4F10164812F
S11323307581868197810E94393428ED3FE049E414
S113234050E40E941B3220E030E048EC52E40E944A
S113235039340E948332F801658F768F878F90A37A
S1132360F10160857185828593850E948332F8012D
S113237061A372A383A394A32C960FB6F894DEBF33
S11323800FBECDBFDF91CF911F910F91FF90EF90C2
S1132390DF90CF90BF90AF909F908F907F906F9081
S11323A05F904F903F902F9008952F923F924F92BD
S11323B05F926F927F928F929F92AF92BF92CF92D1
S11323C0DF92EF92FF920F931F93CF93DF93CDB7DA
S11323D0DEB7AC970FB6F894DEBF0FBECDBF1C01BD
S11323E07B018A01DB014D905D906D907C90C3016F
S11323F0B2010E9418324B015C01F701C480D58000
S1132400E680F780C701B6010E9418326DA37EA34F
S11324108FA398A7C301B2010E94E8342B013C01A9
S1132420C701B6010E94E8346B017C0177FA70940D
S113243077F87094D501C401B05889A79AA7ABA7BF
S1132440BCA72DA13EA14FA158A5C301B2010E9472
S1132450393469837A838B839C83A3019201C701F6
S1132460B6010E9439346D837E838F839887898671
S11324709A86AB86BC86D701C601B0588D879E87E5
S1132480AF87B88B8DA19EA1AFA1B8A5898B9A8B7C
S1132490AB8BBC8B1D8A1E8A1F8A188E9C01AD01D2
S11324A069A57AA58BA59CA50E943934698F7A8F7A
S11324B08B8F9C8F29A53AA54BA55CA5C701B601B6
S11324C00E9439346D8F7E8F8F8F98A349A25AA2B0
S11324D06BA27CA2A801BE016F5F7F4FC1010E9465
S11324E07F1FAC960FB6F894DEBF0FBECDBFDF9151
S11324F0CF911F910F91FF90EF90DF90CF90BF90FD
S1132500AF909F908F907F906F905F904F903F908F
S11325102F9008951F920F920FB60F9211240BB6AD
S11325200F922F938F939F93AF93BF93EF93FF9348
S11325301092C3049BB380EF89278BBB8CB180932B
S1132540F8018091F9019091FA01A091FB01B091F9
S1132550FC01BA2FA92F982F88278093F901909313
S1132560FA01A093FB01B093FC018091F9019091D1
S1132570FA01A091FB01B091FC0188278093F90135
S11325809093FA01A093FB01B093FC012091F80110
S11325908091F9019091FA01A091FB01B091FC01A5
S11325A0822B8093F9019093FA01A093FB01B093DD
S11325B0FC01809111018C3008F086C080911101DA
S11325C0843028F5EBEAF4E080819181A281B38123
S11325D0892F9A2FAB2FBB27A7FDBA9580839183B0
S11325E0A283B38380819181A281B381BB2780833D
S11325F09183A283B3832091F80180819181A28188
S1132600B381B22B80839183A283B38351C0809121
S11326101101883028F5EBEAF4E084819581A681E4
S1132620B781892F9A2FAB2FBB27A7FDBA95848337
S11326309583A683B78384819581A681B781BB27BF
S113264084839583A683B7832091F801848195813F
S1132650A681B781B22B84839583A683B78328C0D0
S1132660809111018C3020F5EBEAF4E080859185AE
S1132670A285B385892F9A2FAB2FBB27A7FDBA95C7
S113268080879187A287B38780859185A285B3854A
S1132690BB2780879187A287B3872091F801808523
S11326A09185A285B385B22B80879187A287B38752
S11326B0809111018F5F80931101809111018C3001
S11326C019F48FEF80931101809110018C3008F080
S11326D086C080911001843028F5EBEAF4E084850B
S11326E09585A685B785892F9A2FAB2FBB27A7FD84
S11326F0BA9584879587A687B78784859585A685A7
S1132700B785BB2784879587A687B7872091F8016B
S113271084859585A685B785B22B84879587A687FA
S1132720B78751C080911001883028F5EBEAF4E0B6
S113273080899189A289B389892F9A2FAB2FBB27CE
S1132740A7FDBA95808B918BA28BB38B80899189DD
S1132750A289B389BB27808B918BA28BB38B2091E9
S1132760F80180899189A289B389B22B808B918BDE
S1132770A28BB38B28C0809110018C3020F5EBEA3A
S1132780F4E084899589A689B789892F9A2FAB2F7C
S1132790BB27A7FDBA95848B958BA68BB78B8489B1
S11327A09589A689B789BB27848B958BA68BB78B14
S11327B02091F80184899589A689B789B22B848BE5
S11327C0958BA68BB78B809110018F5F809310013E
S11327D0809110018C3019F48FEF80931001809157
S11327E00F01843020F580910F018230A0F0EBEAD4
S11327F0F4E084A595A5892F992795A784A784A596
S113280095A5992795A784A72091F80184A595A556
S1132810922B95A784A780910F018F5F80930F015E
S113282080910F01843019F48FEF80930F01809110
S11328300E01803108F08BC080910E01843008F4C1
S11328407AC080910E01883028F5EBEAF4E0818D9E
S1132850928DA38DB48D892F9A2FAB2FBB27A7FD03
S1132860BA95818F928FA38FB48F818D928DA38D12
S1132870B48DBB27818F928FA38FB48F2091F801E1
S1132880818D928DA38DB48DB22B818F928FA38F66
S1132890B48F51C080910E018C3028F5EBEAF4E03E
S11328A0858D968DA78DB0A1892F9A2FAB2FBB272D
S11328B0A7FDBA95858F968FA78FB0A3858D968D2A
S11328C0A78DB0A1BB27858F968FA78FB0A320912A
S11328D0F801858D968DA78DB0A1B22B858F968F2B
S11328E0A78FB0A328C080910E01803120F5EBEAB8
S11328F0F4E081A192A1A3A1B4A1892F9A2FAB2FB7
S1132900BB27A7FDBA9581A392A3A3A3B4A381A1D6
S113291092A1A3A1B4A1BB2781A392A3A3A3B4A30F
S11329202091F80181A192A1A3A1B4A1B22B81A30A
S113293092A3A3A3B4A380910E018F5F80930E0191
S113294080910E01803119F48FEF80930E018091F4
S11329500D01873008F054C080910D01811105C02C
S11329608091F8018093D0043CC080910D018130A6
S113297029F48091F8018093D10433C080910D0132
S1132980823029F48091F8018093D2042AC0809186
S11329900D01833029F48091F8018093D30421C080
S11329A080910D01843029F48091F8018093D4043E
S11329B018C080910D018530A0F0EBEAF4E082A507
S11329C093A5892F992793A782A782A593A59927D1
S11329D093A782A72091F80182A593A5922B93A790
S11329E082A780910D018F5F80930D0180910D016D
S11329F0873031F48FEF80930D0181E08093F701EC
S1132A008091F9019091FA01A091FB01B091FC0130
S1132A108C3A9440AF43BF4329F41092F7011092CB
S1132A2011013FC08091F9019091FA01A091FB013D
S1132A30B091FC018C3A9540AF43BF4319F4109216
S1132A4010012FC08091F9019091FA01A091FB012E
S1132A50B091FC018C3A9B40AF43BF4319F41092F0
S1132A600F011FC08091F9019091FA01A091FB011F
S1132A70B091FC018C3A9E40AF43BF4319F41092CD
S1132A800E010FC08091F9019091FA01A091FB0110
S1132A90B091FC018C3A9F40AF43BF4311F41092B4
S1132AA00D018091D7049091D8048091F701882377
S1132AB0A9F081E080932501EBEAF4E0808F579838
S1132AC08FEF9FEF95A784A71092F7011092F90159
S1132AD01092FA011092FB011092FC01FF91EF9108
S1132AE0BF91AF919F918F912F910F900BBE0F903B
S1132AF00FBE0F901F9018952F923F924F925F92A6
S1132B006F927F928F929F92AF92BF92CF92DF92F9
S1132B10EF92FF920F931F93CF93DF93CDB7DEB75E
S1132B20C854D1090FB6F894DEBF0FBECDBFFC0167
S1132B302A013B01322E29961FAF0EAF29978080C0
S1132B409180A280B380C480D580E680F78020E0A5
S1132B5030E04AE754E460857185828593850E945C
S1132B601B326D837E838F839887C501B4010E94D5
S1132B70E83469837A838B839C83C501B4010E9402
S1132B80183269877A878B879C8720E030EE4BEF79
S1132B9054E4C301B2010E9436316EA77FA788AB0B
S1132BA099ABC701B6010E94183260933D0270933D
S1132BB03E0280933F0290934002C701B6010E94F7
S1132BC0E8346093010270930202809303029093AD
S1132BD004022EE23FE24BE15CE469857A858B8551
S1132BE09C850E94393429853A854B855C850E94F1
S1132BF039344B015C012BE335E24AE15CE4698141
S1132C007A818B819C810E94393429813A814B815C
S1132C105C810E943934698B7A8B8B8B9C8B9B01F2
S1132C20AC01C501B4010E9437316D8B7E8B8F8B53
S1132C30988F0E94F2342B013C019B01AC010E944D
S1132C4037316B017C012D813E814F8158850E9473
S1132C5037312D813E814F8158850E943934698FE7
S1132C607A8F8B8F9C8F2EE23FE24BE15CE4C501AF
S1132C70B4010E94393469A37AA38BA39CA32D8148
S1132C803E814F815885C701B6010E9437312D819D
S1132C903E814F8158850E9439346B017C012EE2BC
S1132CA03FE24BE15CE4C501B4010E9439344B01BD
S1132CB05C012BE335E24AE15CE469897A898B891A
S1132CC09C890E9439349B01AC01C501B4010E9466
S1132CD037312D893E894F89588D0E941B329B01C3
S1132CE0AC01C701B6010E9437310E94F2344B0196
S1132CF05C01A30192016D817E818F8198850E9480
S1132D003731A50194010E941B3223966CAF7DAF2D
S1132D108EAF9FAF239720E839EF44E858E46981E8
S1132D207A818B819C810E94393429853A854B852F
S1132D305C850E9439346B017C01A5019401C301B7
S1132D40B2010E9439349B01AC01C701B6010E9453
S1132D501B3227966CAF7DAF8EAF9FAF279723961C
S1132D602CAD3DAD4EAD5FAD239769817A818B81EA
S1132D709C810E9439346B017C0127962CAD3DADBA
S1132D804EAD5FAD279769857A858B859C850E94BA
S1132D9039349B01AC01C701B6010E943631698FF9
S1132DA07A8F8B8F9C8F23962CAD3DAD4EAD5FAD4E
S1132DB0239769857A858B859C850E9439346B01BC
S1132DC07C0127962CAD3DAD4EAD5FAD2797698153
S1132DD07A818B819C810E9439349B01AC01C701AB
S1132DE0B6010E9437316D8B7E8B8F8B988F0DE3EC
S1132DF013E0298D3A8D4B8D5C8DCA01B9010E9477
S1132E003731D80114966D937D938D939C931797C6
S1132E102D893E894F89588DCA01B9010E943731E5
S1132E20F801608771878287938720E030E040E96A
S1132E3050E4698D7A8D8B8D9C8D0E943934298D57
S1132E403A8D4B8D5C8D0E94393420E030E040ECAB
S1132E505FE30E943631D8011C966D937D938D9368
S1132E609C931F9721EE36E446EA50E46D897E89EF
S1132E708F89988D0E943934298D3A8D4B8D5C8DC4
S1132E800E943934F801608B718B828B938B05E738
S1132E9012E08D899E89AF89B88DB058F80184837A
S1132EA09583A683B783898D9A8DAB8DBC8D8087DE
S1132EB09187A287B38720E030E040E450EC6D892D
S1132EC07E898F89988D0E943934298D3A8D4B8D56
S1132ED05C8D0E943934D8011C966D937D938D933B
S1132EE09C931F97298D3A8D4B8D5C8DCA01B90136
S1132EF00E9439346B017C012D893E894F89588D9C
S1132F00CA01B9010E9439349B01AC01C701B60161
S1132F100E94363127ED33EB4DED5FE30E943934E7
S1132F20F801608B718B828B938BA50194016AE904
S1132F3079E187EC95E40E941B326BAF7CAF8DAFD7
S1132F409EAF232D30E0A9014D5F5F4F249FC00148
S1132F50259F900D349F900D112499230CF4019614
S1132F60959587958EAB882309F4F6C3412C212CC3
S1132F7033243394F1E0F98B19A61AA61BA61CA6D8
S1132F801DA21EA21FA218A61FAA18AE19AE1AAE21
S1132F9019A21AA21BA21CA229864DA6232C29859C
S1132FA02215D8F42F5F2987622F70E06E5F7F4F60
S1132FB0072E000C880B990B0E94B6329B01AC01C2
S1132FC06BAD7CAD8DAD9EAD0E949C3469A77AA794
S1132FD08BA79CA739853DA7212C44E0431508F015
S1132FE01CC28985281201C1422C512CB201052C26
S1132FF0000C880B990B0E94B6326B017C019B017B
S1133000AC0160E070E080E09FE30E941B324B0162
S11330105C01A501940160E070E080E89FE30E94F8
S113302036310E94F23469837A838B839C83632CC8
S1133030712C43018418950891E0891A9108660C53
S1133040771C660C771CD301A35CBC4F5D01A70100
S1133050960160E070E080E89FE30E941B3220E06C
S113306030E040E85FE30E94373129813A814B81A7
S11330705C810E9439342D893E894F89588D0E9484
S11330803934880C991C880C991C8401035C1C4FEE
S1133090F80120813181428153810E943934D50164
S11330A06D937D938D939C931397F301EB58FD4F90
S11330B05F01F401EB58FD4F20813181428153813E
S11330C06D897E898F89988D0E9439343B014C012A
S11330D0D8012D913D914D915C91698D7A8D8B8DA7
S11330E09C8D0E943934A70196010E941B329B01DA
S11330F0AC01C401B3010E94373129813A814B816B
S11331005C810E943934F5016083718382839383E7
S1133110820101501109C0903D02D0903E02E0901E
S11331203F02F0904002000F111F000F111FF80121
S1133130E75CFD4F80809180A280B380440C551CD5
S1133140440C551C920123503E4F390103501E4F2D
S1133150D8012D913D914D915C91C701B6010E941A
S1133160393469837A838B839C8320910102309163
S113317002024091030250910402C501B4010E946D
S113318039349B01AC0169817A818B819C810E94D5
S11331903731F30160837183828393839201275CC7
S11331A03D4F2901A5019401C701B6010E9439349C
S11331B06B017C01209101023091020240910302D3
S11331C050910402D8016D917D918D919C910E9442
S11331D039349B01AC01C701B6010E943631F201BA
S11331E0608371838283938318C1FDA50F2F10E040
S11331F0229C60011124009F4001019F900C900CBF
S113320011248C189D08092C000CAA08BB08C501C0
S1133210B4010E94B6320E94F2344B015C01B80141
S1133220110F880B990B0E94B63269837A838B83C2
S11332309C8320E030E040E85FE30E9436316D83F8
S11332407E838F8398879B01AC010E9439342B01C4
S11332503C010D2C000CEE08FF08C701B6010E94CA
S1133260B6329B01AC01C301B2010E9436310E9407
S1133270F234A50194010E941B326B017C01298167
S11332803A814B815C81CA01B9010E94373120E047
S113329030E040E85FE30E943631A50194010E94CA
S11332A01B326D877E878F87988B832D90E04985AD
S11332B0242F30E04C01821A930A8401021B130B61
S11332C00F5F1F4F3C01660C771C660C771CC30113
S11332D0835C9C4F5C0120E030E040E85FE369815F
S11332E07A818B819C810E9437316D8F7E8F8F8F85
S11332F098A3298D3A8D4B8D5C8D6D857E858F8548
S113330098890E943934880C991C880C991CD40122
S1133310A35CBC4F2D012D913D914D915C910E9478
S1133320393429813A814B815C810E941B326AAB1A
S11333307BAB8CAB9DAB000F111F000F111FF8016D
S1133340E35CFC4F2081318142815381C701B60186
S11333500E9439342D813E814F8158850E941B3251
S11333609B01AC016AA97BA98CA99DA90E94363155
S11333709B01AC016D8D7E8D8F8D98A10E94393497
S1133380F501608371838283938393012B583D4FAE
S11333903901F401EB58FD4F208131814281538181
S11333A0698D7A8D8B8D9C8D0E9439344B015C0123
S11333B0D2012D913D914D915C916D897E898F89CA
S11333C0988D0E94393429813A814B815C810E9415
S11333D01B329B01AC01C501B4010E9436312D851D
S11333E03E854F8558890E9439344B015C01F801B0
S11333F0EB58FD4F2081318142815381C701B601D1
S11334000E9439349B01AC01C501B4010E943631DC
S1133410F3016083718382839383F9890F2F10E012
S1133420C801880F991F880F991FFC01E454FB4FB2
S1133430C590D590E590F490FC01E455FE4F25919C
S11334403591459154916EA57FA588A999A90E94AB
S113345039349B01AC01C701B6010E94373129A55B
S11334603AA54BA55CA50E94393469837A838B8382
S11334709C83211038C0032D10E0000F111F000F92
S1133480111FF801EB58FD4F208131814281538196
S11334900E9439349B01AC0169A17AA18BA19CA142
S11334A00E94373169A37AA38BA39CA3F801E35C40
S11334B0FC4F208131814281538169817A818B81E2
S11334C09C810E9439349B01AC016DA17EA18FA126
S11334D098A50E9436316DA37EA38FA398A729894E
S11334E02F5F298B32C1C8010196880F991F880F5D
S11334F0991FFC01E454FB4F85909590A590B490DE
S113350084559E4FFC0125913591459154916EA5AA
S11335107FA588A999A90E9439349B01AC01C501F2
S1133520B4010E94373129A53AA54BA55CA50E9498
S113353039346D877E878F87988B022D10E0C80100
S1133540880F991F880F991FFC01E75CFD4FC0800D
S1133550D180E280F380FC01E350FE4F4080518033
S11335606280738029813A814B815C81C701B601F5
S11335700E9439344B015C012D853E854F85588965
S1133580C301B2010E9439349B01AC01C501B401ED
S11335900E9437316D837E838F839887A32CB12C4F
S11335A0AA0CBB1CAA0CBB1C95012B583D4FD9017E
S11335B08D919D910D90BC91A02D8D8F9E8FAF8F7D
S11335C0B8A32D813E814F815885BC01CD010E9455
S11335D039349B01AC0169A17AA18BA19CA10E9401
S11335E0373169A37AA38BA39CA3F501E35CFC4F59
S11335F080809180A280B3802D813E814F81588547
S1133600C501B4010E9439349B01AC016DA17EA1B6
S11336108FA198A50E9436316DA37EA38FA398A78E
S113362020E030E0A9016D897E898F89988D0E9400
S11336302E3418160CF054C0A301920169817A81CA
S11336408B819C810E9439342B013C01A701960196
S11336506D857E858F8598890E9439349B01AC01E4
S1133660C301B2010E9436316B017C01B801110F14
S1133670880B990B0E94B6329B01AC01C701B601BD
S11336800E9439349B01AC01C501B4010E94393454
S11336906B017C01BDA56B2F70E080E090E00E947F
S11336A0B63220E030E040E85FE30E9437312D89F4
S11336B03E894F89588D0E9439349B01AC01C70162
S11336C0B6010E941B329B01AC016FA978AD89AD94
S11336D09AAD0E9437316FAB78AF89AF9AAF32C0E1
S11336E0A301920169817A818B819C810E94393482
S11336F04B015C01A70196016D857E858F859889B4
S11337000E9439349B01AC01C501B4010E943631D9
S11337109B01AC016D8D7E8D8F8D98A10E943934F3
S1133720298D3A8D4B8D5C8D0E9439349B01AC01FF
S11337306FA978AD89AD9AAD0E9437316FAB78AF80
S113374089AF9AAFE989EE5FE98B23943394FEA99C
S1133750F31508F024CC0CC01DA21EA21FA218A6AB
S11337601FAA18AE19AE1AAE19A21AA21BA21CA245
S113377023962CAD3DAD4EAD5FAD23976DA17EA1DB
S11337808FA198A50E9439346B017C0123962CAD3E
S11337903DAD4EAD5FAD239769A17AA18BA19CA1EC
S11337A00E9439344B015C0127962CAD3DAD4EADE2
S11337B05FAD27976DA17EA18FA198A50E94393492
S11337C09B01AC01C501B4010E9437312996AEAD0D
S11337D0BFAD29976D937D938D939C9313978FA978
S11337E098ADA9ADBAAD2996EEADFFAD2997848306
S11337F09583A683B78329A13AA14BA15CA12796FF
S11338006CAD7DAD8EAD9FAD27970E9439349B0181
S1133810AC01C701B6010E9436312996AEADBFADE9
S1133820299718966D937D938D939C931B97C85BF2
S1133830DF4F0FB6F894DEBF0FBECDBFDF91CF913F
S11338401F910F91FF90EF90DF90CF90BF90AF90BA
S11338509F908F907F906F905F904F903F902F90AC
S11338600895CF93DF93CBE9D0E01882AAE9B0E0C2
S11338701C92EDE9F0E010828881826088838C914B
S113388088698C9380818E60808387E68093990019
S113389010929800DF91CF9108958F929F92AF92EA
S11338A0BF92CF92DF92EF92FF920F931F93CF9329
S11338B0DF9300D000D000D0CDB7DEB70E94DC2C5F
S11338C080E50E94ED2C5E0187E0A80EB11C0E94E9
S11338D0F12CC82ED12CDC2CCC24D9820E94F12CC2
S11338E0C82ACA820E94F12CE82EF12CFE2CEE2468
S11338F0FB820E94F12CE82AEC820E94F12C082F12
S113390010E0102F00271D830E94F12C4801882A03
S11339108E828E010F5F1F4FF80181918F010E94EB
S1133920ED2C8FEC97E00197F1F700C000000A1529
S11339301B0591F70E94F12C882349F2B601DD0C96
S1133940880B990B0E94B63220E030E64AE656E432
S11339500E941B3260930105709302058093030556
S113396090930405B701FF0C880B990B0E94B632A3
S113397020E030E64AE656E40E941B3260930505D7
S1133980709306058093070590930805B401990C7C
S1133990880B990B0E94B63220E030E64AE656E4E2
S11339A00E941B326093090570930A0580930B05EE
S11339B090930C0526960FB6F894DEBF0FBECDBFCC
S11339C0DF91CF911F910F91FF90EF90DF90CF90F7
S11339D0BF90AF909F908F9008951F920F920FB653
S11339E00F9211240BB60F922F933F934F935F9333
S11339F06F937F938F939F93AF93BF93EF93FF93B3
S1133A0080910B0490919C00E82FF0E0E856FB4F66
S1133A1090838F5F873019F080930B049DC01092C0
S1133A200B04E8E9F4E0808190E0982F88279093D4
S1133A300A04809309048091090490910A04882758
S1133A4090930A04809309048091090490910A04D4
S1133A502181822B90930A0480930904828190E04F
S1133A60982F882790930804809307048091070473
S1133A709091080488279093080480930704809108
S1133A800704909108042381822B90930804809367
S1133A900704848190E0982F8827909306048093EC
S1133AA005048091050490910604882790930604E8
S1133AB08093050480910504909106042581822B4E
S1133AC090930604809305046091090470910A049C
S1133AD0072E000C880B990B0E94B63220E030E6CA
S1133AE04AE656E40E941B32609301057093020576
S1133AF08093030590930405609107047091080472
S1133B00072E000C880B990B0E94B63220E030E699
S1133B104AE656E40E941B3260930505709306053D
S1133B20809307059093080560910504709106043D
S1133B30072E000C880B990B0E94B63220E030E669
S1133B404AE656E40E941B326093090570930A0505
S1133B5080930B0590930C05FF91EF91BF91AF916A
S1133B609F918F917F916F915F914F913F912F9191
S1133B700F900BBE0F900FBE0F901F901895DC0195
S1133B80FB014D915D916D917C911397408351831D
S1133B906283738314964D915D916D917C91179717
S1133BA0448355836683778318968D919D910D90F8
S1133BB0BC91A02D80879187A287B3870895FC01CB
S1133BC0A62FB72F409641915191619171914D93D8
S1133BD05D936D937D93E817F907A9F708954F92C4
S1133BE05F926F927F928F929F92AF92BF92CF9289
S1133BF0DF92EF92FF92CF93DF9300D000D0CDB746
S1133C00DEB7FC0180809180A280B380C480D5801F
S1133C10E680F7804084518462847384A501940112
S1133C20C501B4010E94393469837A838B839C83F0
S1133C30A7019601C701B6010E9439349B01AC016A
S1133C4069817A818B819C810E94373169837A836F
S1133C508B839C83A5019401C501B4010E9439346E
S1133C604B015C01A7019601C701B6010E943934DA
S1133C709B01AC01C501B4010E9437316B017C0189
S1133C80A3019201C301B2010E9439349B01AC012A
S1133C90C701B6010E9437310E94F2340F900F9091
S1133CA00F900F90DF91CF91FF90EF90DF90CF9026
S1133CB0BF90AF909F908F907F906F905F904F9048
S1133CC008954F925F926F927F928F929F92AF92DC
S1133CD0BF92CF92DF92EF92FF92CF93DF93CDB753
S1133CE0DEB728970FB6F894DEBF0FBECDBF9C0198
S1133CF0DC018D909D90AD90BC9013971496CD905F
S1133D00DD90ED90FC90179718968D919D910D90F4
S1133D10BC91A02D8D839E83AF83B887F901448421
S1133D20558466847784A5019401C501B4010E9479
S1133D30393469837A838B839C83A7019601C701F5
S1133D40B6010E9439349B01AC0169817A818B816F
S1133D509C810E94373169837A838B839C832D8174
S1133D603E814F815885CA01B9010E9439349B01B3
S1133D70AC0169817A818B819C810E94373169838E
S1133D807A838B839C83A5019401C501B4010E94AD
S1133D9039344B015C01A7019601C701B6010E94A9
S1133DA039349B01AC01C501B4010E9437316B0168
S1133DB07C012D813E814F815885CA01B9010E9441
S1133DC039349B01AC01C701B6010E9437316B0144
S1133DD07C01A3019201C301B2010E9439349B0109
S1133DE0AC01C701B6010E9437310E94F234289613
S1133DF00FB6F894DEBF0FBECDBFDF91CF91FF9019
S1133E00EF90DF90CF90BF90AF909F908F907F9076
S1133E106F905F904F900895CF92DF92EF92FF9250
S1133E200F931F93CF93DF93EC018B01FB01208150
S1133E30318142815381688179818A819B810E9489
S1133E4039346B017C01F801248135814681578125
S1133E506C817D818E819F810E9439349B01AC01EC
S1133E60C701B6010E9437316B017C01F80120853E
S1133E70318542855385688579858A859B850E942D
S1133E8039349B01AC01C701B6010E943731DF917F
S1133E90CF911F910F91FF90EF90DF90CF900895F5
S1133EA0CF92DF92EF92FF920F931F93CF93DF9302
S1133EB0EC01E62EF72E042F152F6C012CE0C20E18
S1133EC0D11C6991799189919991F701219131914D
S1133ED0419151917F010E943731F80161937193AF
S1133EE0819391938F01CC15DD0559F7DF91CF9123
S1133EF01F910F91FF90EF90DF90CF9008954F9214
S1133F005F926F927F928F929F92AF92BF92CF9265
S1133F10DF92EF92FF920F931F93CF93DF936A0187
S1133F20862E972E3A012CE0620E711C482E592ED3
S1133F305C01ECE0AE0EB11C7601F6011082118238
S1133F4012821382C42DD52D8401699179918991AE
S1133F509991F80120813181428153810E94393441
S1133F609B01AC01F70160817181828193810E9480
S1133F703731F7016083718382839383045F1F4F1A
S1133F80CA15DB0511F7F4E0CF0ED11C24E0820E34
S1133F90911CC614D70481F6DF91CF911F910F9124
S1133FA0FF90EF90DF90CF90BF90AF909F908F9055
S1133FB07F906F905F904F9008958F929F92AF92F1
S1133FC0BF92EF92FF920F931F93CF93DF93EC0175
S1133FD08B017A01FB0120853185428553856C81F3
S1133FE07D818E819F810E9439344B015C01F801EF
S1133FF02481358146815781688579858A859B85A9
S11340000E9439349B01AC01C501B4010E943631D0
S1134010F7016083718382839383F8012081318166
S113402042815381688579858A859B850E943934CC
S11340304B015C01F80120853185428553856881F7
S113404079818A819B810E9439349B01AC01C5012D
S1134050B4010E943631F7016483758386839783A4
S1134060F8012481358146815781688179818A816B
S11340709B810E9439344B015C01F801208131811C
S1134080428153816C817D818E819F810E9439346C
S11340909B01AC01C501B4010E943631F701608770
S11340A0718782879387DF91CF911F910F91FF9042
S11340B0EF90BF90AF909F908F900895CF92DF9232
S11340C0EF92FF92CF93DF93EC016A017B019A0197
S11340D0AB01688179818A819B810E94393468832C
S11340E079838A839B83A70196016C817D818E816C
S11340F09F810E9439346C837D838E839F83A701C3
S11341009601688579858A859B850E9439346887FC
S113411079878A879B87DF91CF91FF90EF90DF901B
S1134120CF900895CF92DF92EF92FF920F931F9357
S1134130CF93DF936A017B01EC018C01005F1F4F79
S1134140A7019601688179818A819B810E94393413
S11341506993799389939993C017D10789F7DF916C
S1134160CF911F910F91FF90EF90DF90CF90089522
S1134170CF92DF92EF92FF92CF93DF93EC012FDD8A
S11341806B017C019B01AC01688179818A819B81EF
S11341900E941B32688379838A839B83A7019601DB
S11341A06C817D818E819F810E941B326C837D8313
S11341B08E839F83A7019601688579858A859B856F
S11341C00E941B32688779878A879B87DF91CF910A
S11341D0FF90EF90DF90CF900895CF92DF92EF920F
S11341E0FF920F931F93CF93DF938C016ADD6B01D2
S11341F07C01E801005F1F4FA70196016881798166
S11342008A819B810E941B32699379938993999344
S1134210C017D10789F7DF91CF911F910F91FF90BC
S1134220EF90DF90CF900895579A08950C943D2C09
S1134230089533CB089584B3886384BB82B18863C3
S113424082B9ABE8B0E01C92EAE8F0E01082109288
S11342508C008C918A6A8C938081816180838FEF3A
S11342609FEF9093810080938000109287001092BA
S113427086001092850010928400109283001092A0
S1134280820085B3877C85BB089585B3877C85BB15
S113429080911A05882311F0AD9A01C0AD988091E0
S11342A01B05882311F0AC9A01C0AC9880911C05C1
S11342B0882311F0AB9A01C0AB98809114059091BA
S11342C01505909387008093860080911605909140
S11342D01705909385008093840080911805909130
S11342E01905909383008093820008951092150518
S11342F010921405109217051092160510921905C4
S11343001092180510921A0510921B0510921C05A4
S1134310BCCF0895EF92FF920F931F93CF93DF9337
S1134320CBEAD4E019AA18AA688179818A819B8191
S113433008E114E00E94B63220E030E048EC52E498
S11343400E941B32D8016D937D938D939C93139798
S11343506C817D818E819F810E94B63220E030E0A5
S113436048EC52E40E941B32F8016483758386830F
S11343709783688579858A859B850E94B63220E07B
S113438030E048EC52E40E941B32D80118966D9339
S11343907D938D939C931B976C857D858E859F85DE
S11343A00F2EFCE0EF2EF4E0FF2EF02D0E94B6322B
S11343B020E030E04AE754E40E941B32F7016083B6
S11343C0718382839383688979898A899B890E940E
S11343D0B63220E030E04AE754E40E941B32D701B1
S11343E014966D937D938D939C9317976C897D8917
S11343F08E899F890E94B63220E030E04AE754E477
S11344000E941B32F70160877187828793870E941D
S1134410310EE4E3F4E0D8014D915D916D917C910E
S11344201397408351836283738314964D915D91F6
S11344306D917C911797448355836683778318968F
S11344404D915D916D917C911B9740875187628757
S1134450738760E474E0C8010E94840E68E274E02B
S1134460C7010E94840E698D7A8D8B8D9C8D0FE916
S113447014E00E94B63220E836E948E15BE40E9489
S11344801B3225E33AEF4EE85CE30E943934F8012D
S113449060837183828393836D8D7E8D8F8D98A1CC
S11344A00E94B63220E836E948E15BE40E941B3200
S11344B025E33AEF4EE85CE30E943934D8011496C0
S11344C06D937D938D939C93179710922501DF91A3
S11344D0CF911F910F91FF90EF9008952F923F92EB
S11344E04F925F926F927F928F929F92AF92BF9200
S11344F0CF92DF92EF92FF920F931F93CF93DF93AC
S1134500CDB7DEB764970FB6F894DEBF0FBECDBF4C
S11345101C0184E394E063DB2B013C019B01AC01AF
S11345200E9439349B01AC0161EB7AE186E791E5A5
S11345300E941B326D877E878F87988B20E030E046
S113454040E450E4C301B2010E949C346B017C013D
S113455020E030E040E850E4C301B2010E949C3402
S11345602B013C0104E314E0F80180849184A284CB
S1134570B384A5019401C501B4010E94393428E92A
S113458038E045E05CE30E9439342AEC3EEF43E135
S113459056E50E943934A30192010E941B32698BB3
S11345A07A8B8B8B9C8B20E030E040E85FE36D8559
S11345B07E858F8598890E94373129893A894B896C
S11345C05C890E9436312B013C0121EF39E445EB33
S11345D057EDF80160817181828193810E943934A1
S11345E0A30192010E943934A70196010E941B3253
S11345F069837A838B839C8321EF39E445EB57ED00
S1134600F80164817581868197810E9439349B0108
S1134610AC01C301B2010E943934A70196010E9482
S11346201B326D837E838F83988721EF39E445EBBA
S113463057EDC501B4010E9439342B013C0120E03F
S113464030E040E450E46D857E858F8598890E9432
S1134650393420E030E040E85FE30E9437312989B3
S11346603A894B895C890E9436319B01AC01C301B4
S1134670B2010E943934A70196010E941B32698756
S11346807A878B879C87B101CE0101960E94840EA4
S113469064960FB6F894DEBF0FBECDBFDF91CF9105
S11346A01F910F91FF90EF90DF90CF90BF90AF904C
S11346B09F908F907F906F905F904F903F902F903E
S11346C008957F928F929F92AF92BF92CF92DF9282
S11346D0EF92FF920F931F93CF93DF93CDB7DEB783
S11346E068970FB6F894DEBF0FBECDBF0F2EFAE069
S11346F07F2EF02D0F2EF4E3CF2EF4E0DF2EF02DDD
S11347000F2EF0E4AF2EF4E0BF2EF02DCE01019673
S1134710E5DEBE01635F7F4F88E294E030DACE01CC
S113472001964C010F2EF8E2EF2EF4E0FF2EF02D4F
S11347308701F40161917191819191914F012DEC67
S11347403CEC4CE45EE30E9439349B01AC01F8017B
S113475060817181828193810E943731F801619374
S11347607193819391938F01EC15FD0511F7CE019F
S11347700D964C018501F70161917191819191919F
S11347807F01F40121913191419151914F010E9496
S1134790373120E030E040E05FE30E9439342DEC13
S11347A03CEC4CE45EE30E9439349B01AC01F8011B
S11347B060817181828193810E943731F801619314
S11347C07193819391938F01EC14FD04A1F67A9473
S11347D071109CCF68960FB6F894DEBF0FBECDBFA4
S11347E0DF91CF911F910F91FF90EF90DF90CF90C9
S11347F0BF90AF909F908F907F9008954F925F925B
S11348006F927F928F929F92AF92BF92CF92DF92DC
S1134810EF92FF920F931F93CF93DF93CDB7DEB741
S11348202C970FB6F894DEBF0FBECDBF8C0120913C
S113483090043091910440919204509193046091BA
S113484094047091950480919604909197040E9429
S1134850F13220E030EC48EA57E40E941B322BEDA1
S11348603FE049EC50E40E94393421ED30EA46EB54
S113487053E40E941B324B015C010E94E83420E99E
S11348803EE24CEC5EE30E9439340E949B316B01A2
S11348907C01C501B4010E9418322B013C01C701FF
S11348A0B6010E9418324B015C019B01AC01C301AB
S11348B0B2010E941B320E9428312B013C0120E0EE
S11348C030E0A901C701B6010E942E34882354F4B4
S11348D0A30192016BED7FE089EC90E40E943631F4
S11348E02B013C01C301B2010E9418329B01AC01AF
S11348F0C501B4010E94393469837A838B839C8314
S1134900C301B2010E94E8349B01AC01C501B401AA
S11349100E9439346D837E838F839887C701B601E3
S11349200E94E83469877A878B879C872DEC3CEC5E
S11349304CEC5DE36091240470912504809126047D
S1134940909127040E9437316093240470932504C6
S113495080932604909327049801AE014F5F5F4F24
S113496068E274E080E494E00E94990F2C960FB6FC
S1134970F894DEBF0FBECDBFDF91CF911F910F9191
S1134980FF90EF90DF90CF90BF90AF909F908F906B
S11349907F906F905F904F9008958F929F92AF9207
S11349A0BF92EF92FF920F931F93CF93DF93CDB7F4
S11349B0DEB7E0970FB6F894DEBF0FBECDBF7C0123
S11349C0209188043091890440918A0450918B0489
S11349D060918C0470918D0480918E0490918F0469
S11349E00E94F13220EC39E940EF5BE40E941B3273
S11349F020E030E04CEF54E40E9437314B015C017D
S1134A00BE016F5F7F4F80E494E00E940F0FBE01F0
S1134A10635F7F4FCE0101960E944B106FE974E0F3
S1134A20CE010D96ACD88E01075E1F4F28E0B5016C
S1134A30A401CE010D960E947C15AE014F5F5F4F1D
S1134A40BE01635F7F4FC8010E94D511BE016B5D3B
S1134A507F4FCE0101960E94840E9701AE014B5DFB
S1134A605F4F68E274E080E494E00E94990FE0965E
S1134A700FB6F894DEBF0FBECDBFDF91CF911F916B
S1134A800F91FF90EF90BF90AF909F908F900895FB
S1134A90EF92FF921F93CF93DF93C9EED4E00F2ED2
S1134AA0F1E0EF2EF5E0FF2EF02D10E06991799101
S1134AB08991999127E231E348EC5EE30E94143234
S1134AC088230CF41F5FCE15DF0581F781E01630D3
S1134AD009F480E0DF91CF911F91FF90EF9008954A
S1134AE02F923F924F925F926F927F928F929F92FA
S1134AF0AF92BF92CF92DF92EF92FF920F931F93E8
S1134B00CF93DF93CDB7DEB7CB57D1090FB6F89467
S1134B10DEBF0FBECDBFAF969FAF8EAFAF97E5960A
S1134B207FAF6EAFE597E3965FAF4EAFE397790142
S1134B3009EE14E00F2EF1E0CF2EF5E0DF2EF02D7C
S1134B40B12CF80161917191819191918F0127E2CA
S1134B5031E348EC5EE30E94143288230CF4B394EE
S1134B600C151D0571F7F1E0E896FFAFE89726E014
S1134B70B21203C0E8961FAEE897E8968FADE897A7
S1134B80882309F411C3F701808181110FC080913A
S1134B904C0490914D04029690934D0480934C04E0
S1134BA08C32914019F481E0F701808380911201E5
S1134BB0811113C3F701108210924D0410924C041A
S1134BC00CC389869A86AB86BC8608C0F7FAF09433
S1134BD0F7F8F094C986DA86EB86FC868E010F5FBF
S1134BE01F4F1E01FDE02F0E311CF801C080D18043
S1134BF0E280F38046015701E894B7F826E636E6EA
S1134C0046E85FE3C501B4010E94363121EC3AEC79
S1134C1041EC5FE30E941B320E94283120E030E027
S1134C2044E353E40E94393420ED3FE049E450E486
S1134C300E941B3226E636E64EE151E40E943731EB
S1134C4023E333E343ED5FE30E941B3220ED3FE0B7
S1134C5049E450E40E94393420E030E044E353E472
S1134C600E941B322B013C0120E030E0A901C70166
S1134C70B6010E9414328823C1F0C301B2010E941C
S1134C8018322B013C01A7019601C501B4010E9411
S1134C901B329B01AC01C301B2010E943934F801FB
S1134CA0608371838283938309C0C301B2010E942C
S1134CB01832F80160837183828393830C5F1F4FE2
S1134CC00215130509F091CFCE01019651DA8091B6
S1134CD0010590910205A0910305B09104058D8B07
S1134CE09E8BAF8BB88F8091050590910605A0919E
S1134CF00705B0910805B058898B9A8BAB8BBC8B98
S1134D008091090590910A05A0910B05B0910C05BD
S1134D108D879E87AF87B88BAE01475E5F4FBE011C
S1134D206F5F7F4FCE010D9648D9CE01499620DAA8
S1134D30AE014B5D5F4FE5966EAD7FADE597AF96E7
S1134D408EAD9FADAF9739D9CE01859611DABE01EC
S1134D506B5D7F4FCE0149965FD86B017C01AF96A6
S1134D606EAD7FADAF97CE010D9656D84B015C0169
S1134D70E5966EAD7FADE597CE0101964DD82B013A
S1134D803C0120E030E040E85FE3C701B6010E9447
S1134D9037316B017C0126E636E646E65FE3C50162
S1134DA0B4010E9439344B015C0120ED3CEC4CEC25
S1134DB05DE3C301B2010E9439349B01AC01C5011A
S1134DC0B4010E9437319B01AC01C701B6010E94B6
S1134DD039344B015C01AE01475B5F4FAF966EAD5A
S1134DE07FADAF97CE010D96E8D8AE014B5A5F4F19
S1134DF0E5966EAD7FADE597CE010196DED8CE0186
S1134E00875B9F4F7C018E010B5A1F4F68019CE00A
S1134E10C90ED11CF70161917191819191917F012A
S1134E2026E636E646E65FE30E9439342B013C0170
S1134E3020ED3CEC4CEC5DE3F801608171818281F2
S1134E4093810E9439349B01AC01C301B2010E94D9
S1134E503731F80161937193819391938F01EC152C
S1134E60FD05C1F6AE014F5C5F4FBE016B5D7F4F28
S1134E70CE014996A2D8BE016B5A7F4FCE01C1968E
S1134E800E940C1FA50194010E9437316B017C0123
S1134E90AE01435C5F4FBE016B5D7F4FCE0149960F
S1134EA00E94501FBE016B5A7F4FCE01CD960E94C7
S1134EB00C1FE1966CAF7DAF8EAF9FAFE197A7015A
S1134EC09601C701B6010E9439344B015C01E19699
S1134ED02CAD3DAD4EAD5FADE197CA01B9010E9465
S1134EE039342B013C01A3019201C501B4010E9494
S1134EF037310E94F2344B015C0120E030E0A9011B
S1134F00C701B6010E942E3418160CF090C0A701F8
S1134F109601C501B4010E943731E7966CAF7DAFAD
S1134F208EAF9FAFE797A50194010E9439344B01DE
S1134F305C01BE016B5D7F4FCE0149960E940C1F40
S1134F402B013C0120E030E040E85FE3C301B20103
S1134F500E9437319B01AC01C501B4010E94393470
S1134F600E94F2349B01AC010E9437319B01AC01D9
S1134F7060E070E080E89FE30E941B32EC966CAF27
S1134F807DAF8EAF9FAFEC978E010F5C1F4F1E015C
S1134F90FDE32F0E311C6E0121E6C20ED11C7101FE
S1134FA0F80121913191419151918F01F101419089
S1134FB05190619071901F01E7966CAD7DAD8EADFF
S1134FC09FADE7970E9439344B015C01E1962CAD0B
S1134FD03DAD4EAD5FADE197C301B2010E943934DE
S1134FE09B01AC01C501B4010E943731F601619304
S1134FF07193819391936F010E151F0589F6BE017C
S11350006B5D7F4FCE0149960E940C1F20E030E07B
S113501040E85FE30E9437319B01AC01E7966CAD39
S11350207DAD8EAD9FADE7970E9439348DC0A70149
S11350309601C501B4010E943631E7966CAF7DAF8D
S11350408EAF9FAFE797A50194010E9439346B019D
S11350507C01BE016B5D7F4FCE0149960E940C1FFF
S11350604B015C0120E030E040E85FE3C501B4019E
S11350700E9437319B01AC01C701B6010E9439344B
S11350800E94F2349B01AC010E9437319B01AC01B8
S113509060E070E080E89FE30E941B32EC966CAF06
S11350A07DAF8EAF9FAFEC978E010F5C1F4F1E013B
S11350B0FDE32F0E311C2E0121E6420E511C31015D
S11350C0F80161917191819191918F01F101819028
S11350D09190A190B1901F01E1962CAD3DAD4EADE4
S11350E05FADE1970E9439346B017C01A501940105
S11350F0E7966CAD7DAD8EAD9FADE7970E943934D8
S11351009B01AC01C701B6010E943731F2016193E2
S11351107193819391932F010615170589F6BE01AA
S11351206B5D7F4FCE0149960E940C1F20E030E05A
S113513040E85FE30E943731E1962CAD3DAD4EADC2
S11351405FADE1970E943934A5960CAD1DAD2EAD2F
S11351503FADA597E396EEADFFADE39700831183D2
S113516022833383A9960CAD1DAD2EAD3FADA99717
S11351700483158326833783AD960CAD1DAD2EAD08
S11351803FADAD9700871187228733876487758782
S113519086879787EC964CAD5DAD6EAD7FADEC9791
S11351A0CF010E9492207DC0E396EEADFFADE39760
S11351B0108211821282138214821582168217823F
S11351C0108611861286138680E090E0A0E8BFE383
S11351D084879587A687B78764C08090E9049090F8
S11351E0EA04A090EB04B090EC04C090ED04D090DD
S11351F0EE04E090EF04F090F004A7019601C501DD
S1135200B4010E942E3418164CF0F7FAF094F7F813
S1135210F094C982DA82EB82FC8204C089829A8289
S1135220AB82BC828090F1049090F204A090F304CD
S1135230B090F404C090F504D090F604E090F70424
S1135240F090F804A7019601C501B4010E942E3420
S113525018164CF0F7FAF094F7F8F094CD82DE8249
S1135260EF82F88604C08D829E82AF82B8868090D9
S1135270F9049090FA04A090FB04B090FC04C09050
S1135280FD04D090FE04E090FF04F0900005A70117
S11352909601C501B4010E942E3418160CF491CC69
S11352A095CCE896FFADE897F09312018F2FC5587F
S11352B0DF4F0FB6F894DEBF0FBECDBFDF91CF91A5
S11352C01F910F91FF90EF90DF90CF90BF90AF9020
S11352D09F908F907F906F905F904F903F902F9012
S11352E008952F923F924F925F926F927F928F9286
S11352F09F92AF92BF92CF92DF92EF92FF920F9361
S11353001F93CF93DF93CDB7DEB7C65CD1090FB639
S1135310F894DEBF0FBECDBFCD53DF4F8883C35C8F
S1135320D040CC53DF4F9883C45CD040CB53DF4F85
S11353306883C55CD040CA53DF4F7883C65CD040D5
S1135340282E392E0AE514E0CE0101967C01DE01F7
S11353505196CB54DF4FB983A883C55BD0400F2E41
S1135360FAE6CF2EF4E0DF2EF02DCF54DF4FB983D1
S1135370A883C15BD040C754DF4F99838883C95B3E
S1135380D040F10181909190A190B1901F01D8017A
S11353904D905D906D907D908D01A3019201C501AA
S11353A0B40164D720E030E040E05FE30E94393488
S11353B0F70161937193819391937F01A30192010A
S11353C0C501B40154D720E030E040E05FE30E941F
S11353D03934CF54DF4FA881B981C15BD0406D937C
S11353E07D938D939D93CF54DF4FB983A883C15B85
S11353F0D0400C151D0529F6C754DF4FE880F9800D
S1135400C95BD040DE019D968E010F5D1F4FCE011A
S11354100D96BD019801F701CB54DF4F48815981A6
S1135420C55BD040C190D190E190F190DB01CD9269
S1135430DD92ED92FD92BD01DA01CD90DD90ED900B
S1135440FD90AD01D901CD92DD92ED92FD929D01C9
S1135450E817F90739F78D8D9E8DAF8DB8A1C75424
S1135460DF4F88839983AA83BB83C95BD040AD9601
S11354701CAE1DAE1EAE1FAEAD97C9A4DAA4EBA43C
S1135480FCA420E030E040E050ECC701B6010E94EB
S11354903934E1966CAF7DAF8EAF9FAFE1978DA0AD
S11354A09EA0AFA0B8A4A5019401C501B401DFD6A4
S11354B0E5966CAF7DAF8EAF9FAFE597A7019601E0
S11354C0C701B601D4D6E9966CAF7DAF8EAF9FAF5E
S11354D0E997ED961CAE1DAE1EAE1FAEED97C9A0AA
S11354E0DAA0EBA0FCA020E030E040E050ECC701E3
S11354F0B6010E943934C358DF4F688379838A83A5
S11355009B83CD57D04020E030E040E050ECC50113
S1135510B4010E943934CF57DF4F688379838A837B
S11355209B83C158D040A7019601C701B6019FD6FD
S1135530CB57DF4F688379838A839B83C558D040D8
S1135540C757DF4F188219821A821B82C958D0406C
S1135550C754DF4F288139814A815B81C95BD040C0
S1135560CA01B90184D6C357DF4F688379838A831C
S11355709B83CD58D040CF56DF4F188219821A82B0
S11355801B82C159D040CB56DF4F188219821A8230
S11355901B82C559D040C756DF4F188219821A8220
S11355A01B82C959D040C356DF4F688379838A83ED
S11355B09B83CD59D040CF55DF4F188219821A8270
S11355C01B82C15AD040CB55DF4F188219821A82F0
S11355D01B82C55AD040C755DF4F188219821A82E0
S11355E01B82C95AD040C355DF4F688379838A83AD
S11355F09B83CD5AD0403E0195E4690E711CC3547F
S1135600DF4F19830883CD5BD040812C912C5E0140
S1135610ADE2AA0EB11CCF53DF4F0883C15CD0406A
S1135620CE53DF4F1883C25CD04059C0F101619161
S11356307191819191911F01D6012D913D914D91CF
S11356405D916D01F20161907190819091902F01B3
S11356500DD6CF54DF4F688379838A839B83C15BE4
S1135660D040A4019301CB54DF4F688179818A81B2
S11356709B81C55BD0400E943934C754DF4F2881D9
S113568039814A815B81C95BD040D5D69B01AC018D
S1135690CF54DF4F688179818A819B81C15BD0407F
S11356A0E6D5D8016D937D938D939C931397045FF6
S11356B01F4F4A145B0409F0B9CF4701C154DF4FAF
S11356C068807980CF5BD040BCE08B0E911CE4E015
S11356D06E0E711CF4E28F16910409F440C0C35499
S11356E0DF4FA881B981CD5BD0406D917D918D91C3
S11356F09D91C354DF4FB983A883CD5BD0409B01F8
S1135700AC01B5D5CB54DF4F688379838A839B83FF
S1135710C55BD0400F2EFDE82F2E312CF02D2C0E22
S11357203D1E280C391C0F2EF9E6CF2ED12CF02D5E
S1135730CC0EDD1EC80CD91C8301CF53DF4F48802B
S1135740C15CD040CE53DF4F5880C25CD04074015E
S1135750C154DF4F79826882CF5BD04067CFAE01FE
S1135760475C5F4FBE016B5B7F4FCE018D960E94FD
S11357707F1F8E01075C1F4F0F2EFEE4CF2EF4E037
S1135780DF2EF02DCB53DF4F2880C55CD040CA53A9
S1135790DF4F3880C65CD0407801BCE0EB0EF11CD2
S11357A0F80161917191819191918F01D6014D9090
S11357B05D906D907D906D0128E031E244E05DE301
S11357C00E9439344B015C0120EF3DEB47E75FE376
S11357D0C301B2010E9439349B01AC01C501B4017B
S11357E046D5F10161937193819391931F010E1535
S11357F01F05B1F66AE574E0CD53DF4F8881C35CC1
S1135800D040CC53DF4F9881C45CD0400E94DF1D50
S11358106EE474E0CB53DF4F8881C55CD040CA533B
S1135820DF4F9881C65CD0400E94BF1DCA53DF4F32
S11358300FB6F894DEBF0FBECDBFDF91CF911F919D
S11358400F91FF90EF90DF90CF90BF90AF909F901B
S11358508F907F906F905F904F903F902F9008951E
S113586017BA86E087BB87B3816387BB88B380633D
S113587088BBC0988FE58DB90895CF92DF92EF92DF
S1135880FF920F931F93CF93DF93CDB7DEB72C977F
S11358900FB6F894DEBF0FBECDBF6E0182E0C80E16
S11358A0D11CE12CF12C9DD08701000F111F035254
S11358B01B4FF8019183808380819181F601319798
S11358C08083F80180819181982F88279183808338
S11358D08081918188279183808383D0F8012081FE
S11358E03181822B932B9183808380819181F60176
S11358F08083FFEFEF1AFF0A82E0C80ED11CE6E0B6
S1135900EE16F10481F600E010E0F801EE0FFF1F3F
S1135910E352FB4F6081718180E090E025D623E360
S113592033E343E550E4A5D720E030E040E85AE310
S1135930A0D7F801EE0FFF1FEE0FFF1FE954FB4F36
S113594062AB73AB84AB95AB0F5F1F4F0630110591
S1135950E1F68E010F5F1F4F7E01FDE0EF0EF11C9B
S1135960F80181918F0190E038D00E151F05C1F721
S11359702C960FB6F894DEBF0FBECDBFDF91CF914A
S11359801F910F91FF90EF90DF90CF90089586B70D
S1135990806186BF1EBC1DBC1CBC88E09DE39BBD12
S11359A08ABD1FBC85E08EBD10927A00089506B6AC
S11359B004FEFDCFECCF08951BB81AB8E5E9F0E07A
S11359C01082599A8AB188618AB980818E608083F5
S11359D087E689B91092900008955D9BFECF8CB93B
S11359E008955F9BFECF8CB108958EB581608EBD06
S11359F01DBC1CBC87B7846087BF789410921E05B9
S1135A0008951F920F920FB60F9211248F938091D5
S1135A101E058F5F80931E058F910F900FBE0F9010
S1135A201F90189510927100109274008CE080936E
S1135A3070000895E7E2F5E02EE235E09FEF8191F2
S1135A408FB9779BFECF9BBBAFECB7E01197F1F713
S1135A5000C00000E217F30791F70895CF93DF9396
S1135A60CDB7DEB768970FB6F894DEBF0FBECDBFD3
S1135A70F7DEA2DF0E94311C0E941B2180EF8ABB4B
S1135A801092D90487B3816287BB2FEF83ED90E333
S1135A90215080409040E1F700C0000080ED8BBBB6
S1135AA0C1DFAFEFB1E1EAE7A150B040E040E1F778
S1135AB000C00000789410921F05109220051092E7
S1135AC021051092220510922305109224051092AC
S1135AD025051092260585DF0F2EFBEA2F2EF4E014
S1135AE03F2EF02D04E714E080DF8CB59DB5809146
S1135AF01E054DDF80912401843031F4809123010F
S1135B008C648093230107C0813029F480912301A0
S1135B108C6C80932301C59AC098D1019F968C9177
S1135B209F97823051F49E968C91811106C080918A
S1135B30230180628093230105C0809123018F7D1E
S1135B408093230180912401813049F480911301D1
S1135B50811105C0809123018B7980932301EFE1AA
S1135B60FEE43197F1F700C00000D10159968D9100
S1135B709D910D90BC91A02D89839A83AB83BC83A6
S1135B80F101418C528C638C748C858D968DA78D1C
S1135B90B0A18D839E83AF83B887858D968DA78DA5
S1135BA0B0A189879A87AB87BC8797A0A6A0B5A028
S1135BB0C0A420E030E04EEF52E4D8016D917D9115
S1135BC08D919C9156D6A4D4D62E20E030E04EEF91
S1135BD052E4F80164817581868197814AD698D40C
S1135BE0E62E20E030E04EEF52E4D80118966D9195
S1135BF07D918D919C911B973CD68AD4F62E20E002
S1135C0030E04EEF52E4F80164857585868597850A
S1135C1030D67ED4E981A4E1B1E0EC935092150131
S1135C20FD81F09316012A852093170190921801A3
S1135C30A0921901B0921A01C0921B01D0921C01CA
S1135C40E0921D01F0921E0160931F0180916C048B
S1135C50813029F080916B04813009F04DC080912E
S1135C60710481110EC01092700410926F0480911F
S1135C7023018D7F80618093230181E080937104EF
S1135C8035C08130E1F480916D04811114C083E04A
S1135C9090E0A1EBAFB9779BFECFBFEFBBBBEFECBE
S1135CA0F7E03197F1F700C00000019791F782E027
S1135CB0809371041BC08130C9F4BCDE17C0BADE06
S1135CC080916D04811112C0E4E1F1E081918FB9FA
S1135CD0779BFECF2FEF2BBB8FEC97E00197F1F76B
S1135CE000C0000091E0E032F90781F780916E0472
